:020000040800F2
:10000000E0040020490100088F1E0008B518000810
:100010008D1E00084D090008612600080000000040
:10002000000000000000000000000000CD220008D9
:100030004F09000800000000911E00081B24000862
:100040006301000863010008630100086301000800
:1000500063010008630100086301000863010008F0
:1000600063010008630100086301000863010008E0
:1000700063010008630100086301000863010008D0
:1000800063010008630100086301000863010008C0
:1000900063010008630100086301000863010008B0
:1000A00063010008630100086301000863010008A0
:1000B0006301000863010008630100086301000890
:1000C0006301000863010008630100086301000880
:1000D0006301000863010008F525000863010008BA
:1000E0006301000863010008630100086301000860
:1000F0006301000863010008630100086301000850
:10010000630100086301000863010008630100083F
:10011000630100086301000863010008630100082F
:10012000630100086301000863010008630100081F
:10013000DFF810D000F046FB0048004735300008DB
:10014000AFF30080E00400200648804706480047DF
:10015000FEE7FEE7FEE7FEE7FEE7FEE7FEE7FEE777
:10016000FEE7FEE77724000831010008202A04DBBF
:10017000203A21FA02F00021704721FA02F3D04020
:10018000C2F12002914008431946704740EA01033A
:100190009B0703D009E008C9121F08C0042AFAD23D
:1001A00003E011F8013B00F8013B521EF9D2704701
:1001B000D2B201E000F8012B491EFBD270470022A9
:1001C000F6E710B513460A4604461946FFF7F0FF56
:1001D000204610BDF0B480EA0102D40F4200B2EB19
:1001E000410F02D20246084611464A0042D0C30DD2
:1001F000DDB2C1F3C752AD1A202D35DAC1F31601B5
:1002000041F4000204B15242C5F1200602FA06F19F
:100210002A411044B3EBD05F23D0C4B1012DA0EB31
:10022000C35009DCF0BC4FF0004202EAC352DBB21B
:1002300000F5000000F0E0B8400000F1807000EB35
:10024000C350A0F1807040EAD170490009E049082C
:1002500041EAC071A0EBC35000F50000400800EB7C
:10026000C350F0BC00F0BFB86142012202EB410173
:10027000001BF6E7F0BC704781F00041AAE780F070
:100280000040A7E730B480EA010202F0004530F0F8
:10029000004221F0004013D090B1C30DD40DC2F341
:1002A0001601C0F31600E41A41F4000140F4000204
:1002B0007D34914201D3641C00E04900002C02DA35
:1002C00030BC002070474FF400000023914201D35E
:1002D000891A034340084FEA4101F7D151B19142D5
:1002E00002D14FF0004105E002D24FF0010101E0E0
:1002F0006FF0010103EBC450284430BC00F073B828
:1003000096230022114600F077B800F0004230F04A
:1003100000400AD0C10D01F56071C0F3160042EA39
:100320000151C20840071143704700200146704741
:10033000002801DBC0F10040002901DBC1F10041D0
:1003400081427047002801DBC0F10040002901DB39
:10035000C1F100418842704730B50B46014600208C
:100360002022012409E021FA02F59D4205D303FA77
:1003700002F5491B04FA02F52844151EA2F10102F8
:10038000F1DC30BD2DE9F05F0546002092469B462A
:1003900088460646814640241BE02846414647469B
:1003A0002246FFF7E3FE53465A46C01A914110D346
:1003B00011461846224600F017FA2D1A67EB01087D
:1003C0004F4622460120002100F00EFA17EB0009EB
:1003D0004E41201EA4F10104DFDC484631462A4686
:1003E0004346BDE8F09F0029A8BF7047401C490064
:1003F00008BF20F00100704710B4B0FA80FC00FA8A
:100400000CF050EA010404BF10BC704749B1CCF1B4
:10041000200421FA04F411FA0CF118BF0121214340
:100420000843A3EB0C01CB1D4FEA00614FEA1020FB
:1004300042BF002010BC704700EBC350104400299D
:10044000A4BF10BC7047401C490008BF20F0010049
:1004500010BC70472DE9FE4F804681EA0300C00FB3
:100460000C46009021F0004123F00045B8EB02005B
:10047000A94105D24046214690461C460B460246FD
:1004800023F00040104347D0270DC7F30A00C3F301
:100490000A510290401A019040286BDAC3F313000E
:1004A00040F4801B0098924620B10023D2EB030A4F
:1004B00063EB0B0B01985946C0F14002504600F027
:1004C00093F906460D4650465946019A00F09BF9AD
:1004D00010EB08006141002487EA115284EAE773B7
:1004E0001A4340D0009A62B3019A012A4FEA075298
:1004F00015DC001B61EB02014FF0004202EA0752DB
:10050000CDE90042001C41F5801132462B4600F037
:100510009BF903B0BDE8F08F40462146F9E7001B88
:1005200061EB0201001C41F5801300185B412018AB
:10053000A2F5001747EB030140EAD570B6196D41EB
:1005400011E06D084FEA360645EAC0754FEA0752DA
:10055000001B61EB0201001C41F5801149084FEAC4
:1005600030000019514132462B4603B0BDE8F04F30
:1005700000F05BB90098012240000023D0EB02029A
:1005800063EBE073009821464FEAE074B8EB00009B
:1005900061EB0401E9E783F000435BE781F0004190
:1005A00058E72DE9FE4F81EA030404F0004421F0EE
:1005B000004100944FF0000B23F0004350EA010487
:1005C0005ED052EA03045BD0C3F30A54C1F30A5568
:1005D0002C44A4F2F3340194A0FB0254C1F31301A0
:1005E00041F48011C3F3130343F4801301FB02446D
:1005F00000FB034E840A970A44EA815447EA835772
:10060000A4FB076802958D0A05FB07854FEA932C2A
:1006100004FB0C542705029D4FEA065847EA16379B
:10062000B5EB08056EEB070C870E920E47EA8117B3
:1006300042EA8312A7FB0201B6EB0B0164EB000454
:100640002B0D43EA0C335E1844EB1C50DA4651463E
:10065000E7FB0201C5F313044FEA0B3343EA1453DB
:100660004FEA0432019C43EA0603A4F10C0402940D
:10067000009CCDE900B400F0E7F803B0BDE8F08FCE
:1006800000200146F9E72DE9F04D81EA030404F06A
:10069000004B21F0004514464FF0000A23F00041C2
:1006A00050EA050220D054EA01021DD0C5F30A57D2
:1006B0000246C5F31303C1F31300C1F30A5640F415
:1006C000801543F48013A7EB0608101BD64608F2EA
:1006D000FD3873EB050002D308F1010801E0921820
:1006E0005B41B8F1000F03DA00200146BDE8F08D50
:1006F00000204FF48011064684460EE0171B73EB72
:10070000050705D3121B63EB050306434CEA010CF6
:1007100049084FEA300092185B4150EA0107EDD1D9
:1007200052EA030012D082EA040083EA050108437A
:1007300005D0101BAB4106D20122002306E00022A7
:100740004FF0004302E06FF0010253101AEB060075
:100750004CEB085110EB0A0041EB0B01BDE8F04DEA
:1007600000F063B8C1F30A52C1F3130140F2FF3342
:1007700041F480119A4202DA00200146704740F2AB
:1007800033439A42A2F2334202DC5242FFF7EEBCFC
:1007900000F02AB830B5041E71F1000404DB4FF0FC
:1007A0000044404264EB0101141E73F1000405DBB8
:1007B0001C464FF00043524263EB0403994208BFCA
:1007C000904230BD064C074D06E0E06840F0010362
:1007D00094E8070098471034AC42F6D3FFF7ACFC1E
:1007E0005032000870320008202A04DB203A00FA58
:1007F00002F1002070479140C2F1200320FA03F378
:10080000194390407047202A06DBCB17203A41FA63
:1008100002F043EAE07306E041FA02F3D040C2F18D
:100820002002914008431946704710B5141E73F119
:10083000000408DA401C41F1000192185B411A43A0
:1008400001D120F0010010BD2DE9F04D92469B46EC
:1008500011B1B1FA81F202E0B0FA80F22032904692
:10086000FFF7C2FF04460F4640EA0A0041EA0B01C7
:1008700053465A46084313D0114653EA010019D093
:10088000C8F140025046FFF771FC05460E4650463F
:1008900059464246FFF7A8FF084305D0012004E06F
:1008A00020463946BDE8F08D0020054346EAE07653
:1008B0002C4337430A986305E40AA0EB08000022A2
:1008C000FD0A44EA47540A3002D500200146E9E710
:1008D000010510196941DDE9084500196941BDE8C4
:1008E000F04DA2E710B5094C207801280CD1410346
:1008F000074800F001FA0020207002F029FCBDE852
:100900001040C82000F040B810BD000028000020B2
:100910000010014010B501F07BFE04A001F0A2FE22
:10092000BDE810400C2001F0C4BC00007761697480
:10093000696E6720666F722053444D31382073749E
:1009400061727420776F726B210D0A00FEE77047A9
:1009500007A001F087FE72B60A4D4FF400542146FD
:10096000284600F0C9F9642000F00EF8F7E700000F
:10097000E7B3BBE7BB9FE99499E8AFAFEFBC815CFD
:10098000720A00000010014070B5044600F01AFA27
:100990000546601C02D004480078044400F012FAB6
:1009A000401BA042FAD370BD180000202DE9F84F7B
:1009B0000027DFF8BCA2DFF8BCB20D460446B946FA
:1009C000504514D05C4512D0AB4884420FD0AB48A0
:1009D00084420CD0AA48844209D0AA48844206D056
:1009E000A948844203D0BD21A8A002F0B1FA28682A
:1009F0000104090C01D0000C03D0BE21A3A002F019
:100A0000A7FA686800281FD00128FCD01128FAD066
:100A10000228F8D01228F6D0AB498842F3D0AB496F
:100A20008842F0D0AA498842EDD0AA498842EAD04B
:100A3000A9498842E7D0A9498842E4D00328E2D0F6
:100A4000BF2192A002F084FA0BE1012000FA07F81E
:100A500001EA0806464574D1544514D05C4512D0CD
:100A6000854884420FD0854884420CD08448844213
:100A700009D08448844206D08348844203D0CD21E3
:100A800082A002F065FA904869680A1A814259D03A
:100A90000EDC032975D006DC002953D0012919D0BA
:100AA000022969D131E0112921D0122964D13AE01B
:100AB000B2F5881F46D006DCB2F5803F42D0B2F5D1
:100AC000801F59D13EE0B2F5001F3BD0B2F5041FA4
:100AD00052D137E0E868022807D0012805D0032862
:100AE00003D0D52169A002F033FAE8683EE0E86857
:100AF000022807D0012805D0032803D0DC2163A0F9
:100B000002F026FAE868001D30E0E868022807D005
:100B1000012805D0032803D0E3215CA002F018FAD5
:100B2000E868083022E0E868022807D0012805D0EC
:100B3000032803D0EA2155A002F00AFAE8680C3035
:100B400014E08DE0A86880B1012811D0022807D0F8
:100B5000F7214EA002F0FCF9A86830B1012807D0B7
:100B60004FF00809C4F8148006E00420814603E031
:100B70004FF00809C4F81080FF2E05D8224605E082
:100B8000FFE74FF00000F1E704F104024FEA8700AD
:100B900001D9A0F1200013684FF00F0101FA00FC09
:100BA00023EA0C0309FA00FC43EA0C0313606868AB
:100BB000C00055D54A48826942F0010282618069CD
:100BC00027F0030200F001000090464813189868CF
:100BD000BA07120F91408843544501D1002118E013
:100BE0005C4501D1012114E023498C4201D102214D
:100BF0000FE022498C4201D103210AE020498C42B6
:100C000001D1042105E01F498C4201D1052100E0FA
:100C100006219140014399606868C002324801682A
:100C200001D5314300E0B1430160686880022F487C
:100C3000016801D5314300E0B14301606868800379
:100C40002B48016801D5314300E0B1430160686879
:100C5000C0032848016801D5314300E0B143016079
:100C60007F1C2E683146FE407FF4EFAEBDE8F88F62
:100C700000080140000C0140001001400014014038
:100C800000180140001C0140002001402E2E2F447E
:100C90007269766572732F53544D333246317878CA
:100CA0005F48414C5F4472697665722F5372632FBF
:100CB00073746D3332663178785F68616C5F67702A
:100CC000696F2E6300000000000011100000211069
:100CD000000031100000121000002210000032103D
:100CE0000010024000000140080401400C040140D3
:100CF000040401400004014070B50C00054604D115
:100D00004FF4F67105A002F023F9E96824EA010026
:100D1000214040EA0140286170BD00002E2E2F4482
:100D20007269766572732F53544D33324631787839
:100D30005F48414C5F4472697665722F5372632F2E
:100D400073746D3332663178785F68616C5F677099
:100D5000696F2E630000000070B515460C00064652
:100D600004D14FF4EA7108A002F0F2F845B1012D68
:100D700004D040F2D51104A002F0EAF8346170BD4D
:100D80002004306170BD00002E2E2F4472697665FC
:100D900072732F53544D3332463178785F48414C4B
:100DA0005F4472697665722F5372632F73746D336B
:100DB00032663178785F68616C5F6770696F2E6347
:100DC0000000000001488068704700001800002003
:100DD0000248816802781144816070471800002041
:100DE000074810B5016841F010010160032000F0D0
:100DF0009BF8032000F006F800F024F8002010BD56
:100E00000020024070B50D4D04464FF47A712878E9
:100E1000B1FBF0F00A490968B1FBF0F000F067FCA3
:100E200048B9102C07D200222146501E00F02CF8A1
:100E300000206C6070BD012070BD00001800002013
:100E4000240000200E4808B5816941F0010181614C
:100E5000816901F001010091C16941F08051C161D6
:100E6000C06900F080500090052000F05DF8054852
:100E7000416821F0E06141F00071416008BD00006F
:100E8000001002400000014070B515460C460646B1
:100E9000102A03D3A92114A002F05AF8102C03D36E
:100EA000AA2111A002F054F81E480068C0F30223E2
:100EB000C3F107022046042A00D90422191D07297C
:100EC00001D2002300E0DB1E012404FA02F1491ED6
:100ED000014099409C40641E2C4021433046BDE8AF
:100EE000704001F0CFBB00002E2E2F447269766552
:100EF00072732F53544D3332463178785F48414CEA
:100F00005F4472697665722F5372632F73746D3309
:100F100032663178785F68616C5F636F7274657890
:100F20002E6300000CED00E010B5044607280BD03E
:100F3000062C09D0052C07D0042C05D0032C03D097
:100F4000912108A002F004F8154904F0070208688E
:100F50004FF6FF03184040EA0220124A104308608F
:100F600010BD00002E2E2F447269766572732F53C8
:100F7000544D3332463178785F48414C5F44726952
:100F80007665722F5372632F73746D3332663178C6
:100F9000785F68616C5F636F727465782E630000C0
:100FA0000CED00E00000FA052DE9F0470F460500C2
:100FB00078D02868C1070AD1810708D4410706D430
:100FC000000704D440F236316FA001F0C1FF47B1F1
:100FD000012F06D0022F04D040F237316AA001F071
:100FE000B7FF774E306800F00700B84209D230688A
:100FF00020F0070038433060306800F00700B84246
:1010000077D128686F4C810729D5400703D56068E0
:1010100040F4E06060602878000703D5606840F421
:1010200060506060A868A0B1802812D0902810D0CD
:10103000A0280ED0B0280CD0C0280AD0D02808D0C4
:10104000E02806D0F02804D040F25D314EA001F037
:101050007FFF6068A96820F0F0000843606028788E
:10106000C00737D0686868B101281CD002281DD09D
:101070004FF4597144A001F06BFF6868012812D049
:10108000022813D020688007002832DA6068696877
:1010900020F0030008436060FFF794FE804641F2B1
:1010A000883910E025E020688003EDE720688001A2
:1010B000EAE700BFFFF786FEA0EB0801494502D929
:1010C0000320BDE8F0876068696800F00C00B0EBB1
:1010D000810FEFD1306800F00700B8420BD93068BB
:1010E00020F0070038433060306800F00700B84255
:1010F00001D00120E5E728784FF4806640074FF4DF
:10110000A0674FF4C0684FF4E06914D5E86860B197
:10111000B0420AD0B84208D0404506D0484504D075
:1011200040F2A23118A001F013FF6068E96820F4D2
:10113000E060084360602878000715D5286960B131
:10114000B0420AD0B84208D0404506D0484504D045
:1011500040F2A9310CA001F0FBFE6068296920F47F
:10116000605040EAC100606000F054F86168164ABF
:10117000C1F30311515CC840144908601448006869
:10118000FFF740FE00209CE72E2E2F447269766503
:1011900072732F53544D3332463178785F48414C47
:1011A0005F4472697665722F5372632F73746D3367
:1011B00032663178785F68616C5F7263632E6300BA
:1011C00000200240001002403632000824000020B7
:1011D0001C0000200448054900684968044AC1F31E
:1011E0000221515CC84070472400002000100240DA
:1011F000463200080448054900684968044AC1F3BA
:10120000C221515CC84070472400002000100240F9
:10121000463200080E4A51680E4801F00C03042BB8
:1012200011D0082B0FD10C48C1F38343C903C05C14
:101230000AD55168084AC1F34041921E515C054AE3
:101240005043B0FBF1F07047044948437047000039
:101250000010024000127A002632000800093D000A
:101260002DE9F84F04007DD0FA4EFB4D20684FF079
:10127000010A4FF000084FF4803960B1C1070DD169
:10128000810762D401076ED440076DD440F2651126
:10129000F2A001F05DFE2078C00753D060684FF4E3
:1012A000A02740B1484506D0B84204D040F26B11A7
:1012B000EAA001F04DFE6868C0F38100012807D064
:1012C0006868C0F38100022809D16868C00306D5A8
:1012D0002868800336D560680028C4D032E0606892
:1012E000484503D1286840F4803009E008B1B8428D
:1012F0000DD0286820F480302860286820F48020F1
:101300002860606888B1FFF75DFD074609E028683E
:1013100040F480202860E5E7FFF754FDC01B6428F7
:1013200077D828688003F7D50CE0FFF74BFD074618
:1013300005E000BFFFF746FDC01B6428F0D8286811
:101340008003F7D4207880074ED5206930B101287A
:1013500004D040F29F11C1A001F0FAFD60691F287E
:1013600008D902E096E042E07BE04FF4D071BBA0E8
:1013700001F0EEFD686810F00C0F07D06868C0F34C
:101380008100022809D16868C00306D42868800754
:1013900014D5206901287DD110E02069B0B1C6F8CC
:1013A00000A0FFF70FFD074605E000BFFFF70AFDAD
:1013B000C01B0228B4D828688007F7D5286861695F
:1013C00020F0F80040EAC10028600DE0C6F8008077
:1013D000FFF7F8FC074604E0FFF7F4FCC01B022807
:1013E0009ED828688007F7D42078000736D5A94F03
:1013F000A06920B3012806D04FF4F07197A001F046
:10140000A7FDA069D8B1C7F800A0FFF7DBFC07462D
:1014100005E054E1FFF7D6FCC01B02288ED8686AAD
:101420008007F7D59C484FF4FA510068B0FBF1F003
:10143000009000BF0098411E0091FAD20EE0C7F85C
:101440000080FFF7BFFC074605E000BFFFF7BAFCCE
:10145000C01B0228AED8686A8007F7D420784007FE
:101460006ED5E068002740B1012806D0052804D0D9
:1014700040F20F2179A001F06BFDE869C00008D4AB
:10148000E86940F08050E861E869012700F0805089
:10149000009000E027E181480168C90512D4016885
:1014A00041F480710160FFF78DFC834606E000BFC8
:1014B000FFF788FCA0EB0B00642891D87748006800
:1014C000C005F5D5E06801280AD008B1052811D07B
:1014D000286A20F001002862286A20F0040002E057
:1014E000286A40F001002862E068A8B1FFF76AFCB2
:1014F00083460DE0286A40F004002862F0E700BF50
:10150000FFF760FCA0EB0B0141F28830814285D8E7
:10151000286A8007F4D50EE0FFF754FC834607E005
:10152000FFF750FCA0EB0B0141F28830814291D8CB
:10153000286A8007F4D41FB1E86920F08050E86180
:10154000E06900287ED0012809D0022807D040F2A7
:10155000AD2142A001F0FCFCE069002872D068686F
:10156000C0F381000228E0696DD0022805D0C6F8DA
:101570006080FFF727FC0446A4E0206A30B14845AC
:1015800004D040F2B62135A001F0E2FC606A70B3ED
:10159000B0F5802F2BD0B0F5002F28D0B0F5402F1C
:1015A00025D0B0F5801F22D0B0F5A01F1FD0B0F518
:1015B000C01F1CD0B0F5E01F19D0B0F5001F16D029
:1015C000B0F5101F13D0B0F5201F10D0B0F5301FAC
:1015D0000DD0B0F5401F0AD0B0F5501F07D0B0F5C0
:1015E000601F04D040F2B7211CA001F0B1FCC6F886
:1015F0006080FFF7E7FB074605E000BFFFF7E2FB6F
:10160000C01B02285BD828688001F7D4206A4845AF
:101610000FD1A06838B1B0F5003F04D040F2CD2121
:101620000EA001F095FC6868A16820F40030084322
:101630006860D4E908010843696821F4741108431B
:10164000686001E051E041E0C6F860A0FFF7BAFB36
:1016500004462AE000004242001002402E2E2F4491
:101660007269766572732F53544D333246317878F0
:101670005F48414C5F4472697665722F5372632FE5
:1016800073746D3332663178785F68616C5F726352
:10169000632E63008004424224000020007000405A
:1016A000FFF790FB001B022809D828688001F7D5B6
:1016B0001BE000BFFFF786FB001B022802D90320B6
:1016C000BDE8F88F28688001F4D40EE00128F7D037
:1016D0006868226A00F48031914204D1616A00F4A2
:1016E0007010884201D00120EAE70020E8E710B539
:1016F000401EB0F1807F01D3012010BD4FF0E024E7
:1017000060610F21601700F0BDFF0020A06107207D
:101710002061002010BD000070B5040020D0A06939
:1017200034490028344A354B20681BD088420AD0FF
:10173000904208D0984206D04FF4B77130A001F023
:1017400007FCA069F8B1A069B0F5807F1BD0B0F5A7
:10175000007F18D0B0F5407F15D040F26F110FE038
:10176000012070BD88420ED090420CD098420AD021
:101770003249884207D03249884204D040F273117E
:101780001FA001F0E5FBA06838B1B0F5805F04D080
:1017900040F275111AA001F0DBFB94F8410000251E
:1017A00020B984F84050204600F04CF8242084F8FA
:1017B00041002068C16821F40051C160204600F05A
:1017C0005BFE2068016921F4904101612068416954
:1017D00021F02A0141612068C16841F40051C160D3
:1017E0006564202084F8410084F84200656300208D
:1017F00070BD000000380140004400400048004037
:101800002E2E2F447269766572732F53544D3332E6
:10181000463178785F48414C5F4472697665722F33
:101820005372632F73746D3332663178785F6861F9
:101830006C5F756172742E6300000000004C004004
:101840000050004030B585B000240094019402940B
:10185000039400681449884224D11448816941F4F2
:1018600080418161816901F480410491816941F085
:101870000401816180690E4D00F0040004904FF472
:1018800000700090022001900320039069462846D2
:10189000FFF78CF82815CDE9000469462846029424
:1018A000FFF784F805B030BD003801400010024059
:1018B00000080140FEE700002DE9F04704466748B4
:1018C0000D46844215D06648844212D06548844251
:1018D0000FD0654884420CD06448844209D06448E3
:1018E000844206D06348844203D0A22162A001F062
:1018F0002FFB286830F07B4102D010F07B4F03D0E3
:10190000A3215DA001F024FB2868C0F30F2797FAFC
:10191000A7F0B0FA80F69AE00120B04038427CD0BF
:10192000082E03D240F20110B04006E0A6F10801F3
:101930004FF00110884040F08060814668680828B8
:1019400014D1286928B1012803D0BE214AA001F092
:10195000FFFA2969E2684FEA192090FAA0F0B0FA7C
:1019600080F022EA192281400A43E260686858B197
:10197000042809D0082807D0012805D0092803D059
:10198000C5213DA001F0E4FA484699FAA9FC04EB10
:101990001061BCFA8CFC4FEA8C084FF00F0C0CFA6B
:1019A00008FC99FAA9F06A680B68B0FA80F0800028
:1019B00023EA0C03824013430B6068688A460128BF
:1019C00001D0092842D1A868022807D0012805D0F3
:1019D000032803D0CD2128A001F0BAFAE86828B185
:1019E000042803D0CE2124A001F0B2FA99FAA9FC70
:1019F000BCFA8CFC4FEA8C084FF0030C0CFA08FC84
:101A000099FAA9F2AB68DAF80000B2FA82F2920011
:101A100020EA0C009340184300E017E099FAA9FC73
:101A2000BCFA8CFC4FEA8C084FF0040CCAF800009A
:101A30000CFA08FC99FAA9F1B1FA81F1EB68890076
:101A400020EA0C008B401843CAF80000761C37FAD5
:101A500006F07FF461AFBDE8F087000000080140A8
:101A6000000C01400010014000140140001801402A
:101A7000001C0140002001402E2E2F447269766523
:101A800072732F53544D3332463178785F48414C4E
:101A90005F4472697665722F5372632F73746D336E
:101AA00032663178785F6C6C5F6770696F2E6300A7
:101AB00000B5034600F03CFB186000F00FFB5860D7
:101AC00000F01AFB9860586800F024FBD86000BD55
:101AD0002DE9FF5F674F0126DFF89C81DFF89C91BD
:101AE000DFF89CA1DFF89CB10D460446B8420BD04C
:101AF000444509D04C4507D0544505D05C4503D03A
:101B0000CD2161A001F024FA6E492868884203D9EA
:101B1000CE215DA001F01CFA686830B1B0F5805F9D
:101B200003D0CF2158A001F013FAA868B0F5805F68
:101B30000AD048B1B0F5405F06D0B0F5005F03D0E1
:101B4000D02151A001F004FAE86848B1B0F5806FE7
:101B500006D0B0F5C06F03D0D1214BA001F0F8F949
:101B6000286948B1042807D0082805D00C2803D0DC
:101B7000D22145A001F0ECF9686960B1B0F5807F31
:101B800009D0B0F5007F06D0B0F5407F03D0D32157
:101B90003DA001F0DDF9E068C0F34030002864D1D9
:101BA000E9686868E2680843296941F20C639A436E
:101BB00011430843E060A868216921F440510143C2
:101BC00021616869616921F440710143616168467E
:101BD000FFF76EFFBC4201D1039808E0444505D0F1
:101BE0004C4503D0544501D05C453ED10298E0B34A
:101BF0002968D1B300EBC00202EB00128800B2FBEF
:101C0000F0F36421B3FBF1F36FF018077B43B2FBF1
:101C1000F0F5B2FBF0F705EB8305322303EB051576
:101C2000B5FBF1F5B7FBF1F705F0F00505EB07158E
:101C3000B2FBF0F7B2FBF0F0B0FBF1F000266FF072
:101C40001802504307EB800003EB0010B0FBF1F0EB
:101C500000F00F00284480B2A060A068102804D2D1
:101C600040F2351108A001F073F904B03046BDE828
:101C7000F09F000000380140004400400048004050
:101C8000004C0040005000402E2E2F4472697665B3
:101C900072732F53544D3332463178785F48414C3C
:101CA0005F4472697665722F5372632F73746D335C
:101CB00032663178785F6C6C5F75736172742E6315
:101CC0000000000020AA4400F0B585B0002422489E
:101CD0000094019402940394816941F010018161A0
:101CE000816901F010010491816941F02001816155
:101CF000816901F020010491816941F00401816151
:101D00008069012200F00400144E55030490294616
:101D10003046FFF721F8124F0022E0213846FFF746
:101D20001BF800950125CDE901546946304603951D
:101D3000FEF73CFEE020CDE900050320CDE902409E
:101D400069463846FEF732FE002220213846FFF76A
:101D500003F805B0F0BD0000001002400010014083
:101D6000000801400C4810B50A4901604FF4E13108
:101D70004160002181600C22C160C0E904128161D0
:101D8000C161FFF7C9FC002803D0BDE81040FEF791
:101D9000DFBD10BD003801404400002030B58DB0DB
:101DA0001C216846FEF70BFA142107A8FEF707FA74
:101DB0003148C16941F40031C161C16901F40031A8
:101DC0000C91816941F0040181618069002400F077
:101DD00004000C9040F20440079009200890032072
:101DE000CDE90904254D07A92846FFF765FD40F612
:101DF000080007900420089007A92846FFF75CFD1B
:101E00001F480068C0F30220C0F10701042900D96F
:101E10000421021D072A01D2002000E0C01E012279
:101E20008A40521E02F0010181400801154981F8E3
:101E30000004144940202239C1F800014FF4612008
:101E4000CDE900040C200294CDE9034005940694EA
:101E50000D4C69462046FFF73BFE206920F4904078
:101E60002061606920F02A006061E06840F4005061
:101E7000E0600DB030BD00000010024000080140DD
:101E80000CED00E026E000E000440040FEE7FEE745
:101E90007047000010B51DA000F0E4FB254C207831
:101EA00001282AD002282AD023A127A000F0DAFB9B
:101EB0001E212AA000F0D6FB64212EA000F0D2FB48
:101EC00000F070FA01281CD000F06CFA02281AD039
:101ED0002EA130A000F0C6FB6068FEF716FA02469D
:101EE0000B4631A000F0BEFB35A0E16800F0BAFB64
:101EF000BDE8104037A000F0B5BB3FA1D5E742A137
:101F0000D3E745A1E5E748A1E3E700000D0A3D3D21
:101F10003D3D3D3D3D3D3D3D20E7B3BBE7BB9FE43F
:101F2000BFA1E681AF203D3D3D3D3D3D3D3D3D3DB9
:101F30000D0A000000000020E7A9BAE997B2E6A860
:101F4000A1E5BC8F00000000E7B3BBE7BB9FE6A89C
:101F5000A1E5BC8F3A2025730D0A0000E79BAEE691
:101F6000A087E8B79DE7A6BB3A20256420636D0DE6
:101F70000A000000E68EA7E588B6E997B4E99A94CE
:101F80003A202564206D730D0A000000E5819CE66F
:101F9000ADA20000E794B5E69CBAE78AB6E6808178
:101FA0003A2025730D0A0000E5BD93E5898DE8B759
:101FB0009DE7A6BB3A20252E316620636D0D0A00F1
:101FC000E680BBE6ADA5E695B03A20256C640D0A27
:101FD000000000003D3D3D3D3D3D3D3D3D3D3D3D25
:101FE0003D3D3D3D3D3D3D3D3D3D3D3D3D3D3D3D21
:101FF0003D3D0D0A00000000E887AAE58AA8E68EAC
:10200000A7E588B600000000E6898BE58AA8E68E81
:10201000A7E588B600000000E6ADA3E8BDAC28E85F
:10202000BF9CE7A6BB290000E58F8DE8BDAC28E981
:102030009DA0E8BF9129000070B500F00FF9154C84
:10204000606000F0AFF90546134A1449606800F07B
:102050005DF900F0A7F910B1E168491DE160854222
:102060000CD001280ED002280ED00DA2012D0DD0CB
:10207000022D0DD00AA10CA000F0F4FA2069401C3A
:10208000206170BD11A2F1E712A2EFE70FA1F2E704
:1020900010A1F0E7000000200000A0400000F04187
:1020A000E5819CE6ADA200005BE78AB6E68081E5AB
:1020B0008F98E58C965D20E794B5E69CBA3A20258A
:1020C00073202D3E2025730D0A000000E6ADA3E825
:1020D000BDAC0000E58F8DE8BDAC00000449496847
:1020E000044A01F0F0010909515CC8407047000042
:1020F000001002403632000804494968044A01F4DD
:10210000E06102EB11210978C840704700100240DD
:102110004632000804494968044A01F4605102EB60
:10212000D1210978C84070470010024046320008AB
:102130000648406810F00C01054805D0042903D07A
:10214000082901D100F006B87047000000100240D5
:1021500000127A000B48416811F480320A4909D014
:10216000B2F5803F06D14168084AC1F34041491C9D
:10217000B2FBF1F14068022200F4701002EB9040D3
:10218000484370470010024000093D0000127A00E9
:102190002DE9F0412F4C304922466378968800257E
:1021A00001278A190B2B0BD2DFE803F0060C13185A
:1021B0001D20232C383C3F000870A52800D16770F3
:1021C000BDE8F0814870032801D1022028E0657045
:1021D000F6E788702028FAD1032021E0C870012892
:1021E000F5D104201CE00871052019E04871062093
:1021F00016E0887107206070B1F8050040BA401EF3
:10220000A080DDE7E288B24204D21144521CC871BA
:10221000E280D5E708206070E580D1E710720920E0
:102220006070CDE750720A2060700B491E2201F1E8
:102230001E00FDF7ABFF1E210748FDF7C0FF064853
:102240001E303044008940BA6080E580A58065700A
:102250002770B5E7280000209E00002010B500F090
:1022600009F8FEF74DF8BDE810400149FEF70AB83D
:102270000000204130B50B4C207801280FD10A4DC9
:10228000B5F8050041BA2846C91D00F07BFE6188FB
:10229000884202D1B5F80D002081002020702089ED
:1022A00030BD000028000020BC0000200720AFF354
:1022B000008010B5C820FEF767FB00F091FFC82032
:1022C000FEF762FBBDE8104000F06CBF70470000F5
:1022D00070B50C4D012240212846FEF73DFD0A4C09
:1022E0006068400800F093FE002240212846FEF777
:1022F00033FD6068400800F08AFEA068401CA060C2
:1023000070BD000000080140340000202DE9F047B6
:1023100089460746904600251D4C11464846FDF764
:10232000ABFF064641464846FDF754FF804631461E
:102330003846E760FDF7FCFF14D22078012804D06E
:10234000012000F047F8012018E0052000F05AF8BD
:102350006088401D80B26080642816D30520FEF797
:1023600013FB11E041463846FDF7ECFF207808D218
:102370000228EAD0002000F02DF8022020706580AD
:10238000E3E7002801D025706580BDE8F0870000F4
:1023900034000020002220210148FEF7DDBC0000AF
:1023A0000008014001480078704700003400002018
:1023B00010B5FFF7EFFF012000F00CF84FF47A7032
:1023C00000F010F8024800210170816010BD00008B
:1023D00034000020024680210148FEF7BDBC000009
:1023E000000801400649642801D2642005E042F259
:1023F0001072904201D94A607047486070470000EF
:102400003400002070B50546002403E0FFF760FFAC
:10241000641CA4B2AC42F9D370BDFEF7D9BC30B590
:102420008FB028216846FDF7CAFE14210AA8FDF7DF
:10243000C6FE01210804CDE9001000240294022503
:102440000491CDE907504FF4E01009906846FEF77B
:1024500007FF60B90F20CDE90A056802CDE90C40FD
:1024600002210AA80E94FEF79FFD002801D0FEF776
:102470006FFA0FB030BD704770B5044640684049F0
:10248000884204D940F666613EA000F061FDE06834
:1024900038B1B0F5005F04D040F6676139A000F0B4
:1024A00057FD206950B1B0F5806F07D0B0F5C06F0F
:1024B00004D040F6686133A000F04AFD60694FF631
:1024C000F371084200D120B940F669612DA000F0F7
:1024D0003FFD20680169E26821F440511143016128
:1024E0002169A0680843616908432168CA6841F20C
:1024F0000C639A430243CA6020684169A26921F4CF
:102500004071114341612E492068884202D1FEF793
:1025100071FE01E0FEF75EFE00EBC00101EB001270
:10252000606864218000B2FBF0F3B3FBF1F36FF05D
:1025300018067343B2FBF0F5B2FBF0F605EB83052A
:10254000322303EB0515B5FBF1F5B6FBF1F605F00B
:10255000F00505EB0615B2FBF0F6B2FBF0F0B0FBB0
:10256000F1F06FF01802504306EB800003EB00100F
:10257000B0FBF1F0216800F00F002844886070BDC6
:1025800020AA44002E2E2F447269766572732F5351
:10259000544D3332463178785F48414C5F4472691C
:1025A0007665722F5372632F73746D333266317890
:1025B000785F68616C5F756172742E630000000063
:1025C0000038014003490A68C2F3C012002AFAD059
:1025D000486070470044004030B50C460546002373
:1025E00004E0E85CFFF7EEFF5B1CDBB2A342F8D32C
:1025F00030BD00000548C168C1F34011002903D077
:102600004068C0B2FFF7C4BD7047000000440040FE
:10261000054800BF50E8001F41F0200140E80012CB
:10262000002AF7D1704700000C4400400A48417866
:1026300051B100224270037808484FF40051012B39
:1026400004D0022B05D102E00122F3E70AB10022F7
:1026500000E00122FEF780BB0000002000100140D6
:10266000FEE700000FB4054B10B503A9044A029819
:1026700000F0EAF810BC5DF814FB00001D30000803
:10268000140000200907090E002804DB00F1E020F7
:1026900080F80014704700F00F0000F1E02080F88F
:1026A000141D704702E008C8121F08C1002AFAD1A1
:1026B00070477047002001E001C1121F002AFBD1C2
:1026C000704700002DE9FF5F82B00021DDE9043092
:1026D000020DDDF840B0034318D044F61050A2F2CA
:1026E000FF3242431514119801281FD0A5EB0B00AF
:1026F000401C5FEA000A4FF000064E4FDFF83891A9
:10270000B046504615D5CAF1000413E011980124D3
:102710004AA3012801D16FEA0B010298119AC0E97E
:102720000031C0E9024206B0BDE8F09FCBF10000E5
:10273000DFE704460021404A491842EB0450CDE946
:10274000001012E0E00707D032463B4640464946BB
:10275000FDF727FF8046894632463B46104619461C
:10276000FDF71FFF06460F466410002CEAD1DDE995
:102770000401DDE90023BAF1000F06DAFDF711FFCD
:1027800042464B46FDF70DFF05E0FDF77CFF424654
:102790004B46FDF778FF04460E460022284BFDF716
:1027A000F9FF03D84FF0FF30014607E00022254B28
:1027B00020463146FDF74EFEFDF7D4FF102409E018
:1027C000002C0ADB0A220023FDF7DCFD039B3032DC
:1027D0001A55641E50EA0102F2D1641C039AC4F136
:1027E00011031444119A012A03D0012208430DD188
:1027F0000AE0084304D000204FF0110B119072E75B
:10280000A3EB0B056D1E0DE05B4504DD4FF00002F0
:1028100005F1010504E003DA4FF00002A5F101051E
:10282000002AECD002981199C0E90231C0E90045B4
:1028300079E70000000014400000F03F3000000085
:102840000000F0430000E03F2DE9FF4F95B09A46AD
:10285000884606460025EEE1252877D10024274644
:10286000F94A0121039400E0044316F8013F203B9C
:1028700001FA03F01042F7D130782A2811D06FF016
:102880002F033078A0F13002092A16D8039A44F0B9
:10289000020402EB820203EB42021044761C039016
:1028A000EFE758F8042B0392002A03DA504244F46D
:1028B0000054039044F00204761C30782E2816D180
:1028C00016F8010F44F004042A280DD06FF02F02EF
:1028D0003078A0F13003092B09D807EB870302EB0E
:1028E0004303C718761CF3E758F8047B761C30784E
:1028F0006C280FD006DC4C2817D068280DD06A2829
:1029000014D104E0742810D07A280FD10DE044F4DB
:1029100000140AE044F4801401E044F44014727896
:10292000824202D104F58014761C761C3078662829
:102930000BD013DC582877D009DC002875D0452847
:10294000F6D04628F4D047281AD193E118E063283E
:1029500035D0642879D0652812D18BE1702873D0E6
:1029600008DC6728F1D069286FD06E280DD06F2859
:1029700006D1ACE073282CD0752874D0782853D0B9
:102980005246179990476D1C54E1C4F30250022837
:1029900009D003280DD0D8F8001004280DD00D6000
:1029A00008F1040846E1D8F80010EA17C1E900521E
:1029B000F6E7D8F800100D80F2E70D70F0E718F890
:1029C000041B8DF8001000208DF80100EB4601205B
:1029D00003E058F804BB4FF0FF3061074FF00001EF
:1029E00002D40DE009F101018946B9420FDA8145AF
:1029F000F8DB1BF809100029F4D108E009F1010106
:102A000089468142FADB1BF809100029F6D10398A8
:102A10005346A0EB090721463846179A00F080FA82
:102A2000284400EB090507E044E008E10DE01BF84D
:102A3000010B524617999047B9F10109F7D2534655
:102A400021463846179AF2E039E00A21C4F30252CF
:102A50004FF0000B0091022A06D058F8040BC11762
:102A6000032A09D00AE023E008F1070020F007025A
:102A7000F2E80201904605E000B2C117042A01D134
:102A800040B2C117002906DA0A460021404261EB34
:102A900002012D2202E0220504D52B228DF804200C
:102AA000012203E0E20701D02022F7E7914657E038
:102AB0000A2100E010214FF0000B00910BE01021E3
:102AC0004FF0000B44F004040827009103E00820B5
:102AD0004FF0000B0090C4F30252022A05D058F8C0
:102AE000040B0021032A08D008E008F1070020F0B9
:102AF0000702F2E80201904603E080B2042A00D106
:102B0000C0B24FF0000922072AD53278702A07D0C8
:102B1000DDF800C08CF0100C5CEA0B0C05D00EE068
:102B200040228DF80420012208E050EA010306D07B
:102B300030238DF804308DF8052002229146009B49
:102B400083F0080353EA0B030AD150EA010201D1D2
:102B5000620705D530228DF804204FF001097F1E51
:102B60003278582A04D039A20C920CAA02920BE0B7
:102B70003BA2F9E75B46009AFDF704FC0C9B9B5CCB
:102B8000029A521E0292137050EA0102F2D1029888
:102B900004A9081A00F1200B600702D524F4803440
:102BA00000E001275F4502DDA7EB0B0000E00020FD
:102BB00000EB0B01009003984944401A0390E00396
:102BC00006D453462146179A039800F0A9F9054404
:102BD000002706E001A85246C05D179990476D1C7A
:102BE0007F1C4F45F6DBE0030CD553462146179A70
:102BF000039800F095F9054404E0302052461799F7
:102C000090476D1C0099481E00900029F5DC08E0F3
:102C10000298029952460078491C029117999047F0
:102C20006D1CBBF10001ABF1010BF1DC5BE100F0CD
:102C300065F90544761C307800287FF40DAE19B094
:102C40002846BDE8F08F00000928010030313233FA
:102C500034353637383961626364656600000000D8
:102C600030313233343536373839414243444546C2
:102C700000000000600700D4062708F1070020F0DC
:102C80000700F0E80223804603F0004C5FEA0C00E6
:102C900001D097A009E0200501D596A005E0E00746
:102CA00001D095A001E0AFF24C001390307823F0F2
:102CB000004365280CD006DC452809D046281DD0E5
:102CC00047287FD13BE0662818D067287AD136E0C4
:102CD0000021112F01DB112000E0781CCDE900015B
:102CE00004A90CA8FFF7EEFCDDE90D010C9A4FF0EA
:102CF000000B07F10109109200914EE04FF00040E7
:102D00000097CDE9011004A90CA8FFF7DBFCDDE971
:102D10000D020C9B0F994FF0000B914610930092FF
:102D200011B9791C00EB0109B7EB090003D4C0F11C
:102D3000FF3B07F10109A9EB0700019042E0012FD9
:102D400000DA01270021112F01DD112000E03846B3
:102D5000CDE9000104A90CA8FFF7B4FCDDE90D01E1
:102D60000C9A00914FF0000BB946109221070FD436
:102D7000009A4A4503DA914601E0A9F10109B9F147
:102D8000010F05DD109AA9F10101515C3029F4D041
:102D9000B84202DA10F1040F03DA0121CDE9011083
:102DA00010E0002803DC8344A9EB000102E0411C91
:102DB000494500DD8946A0EB0B00401C01904FF017
:102DC00000400290200705D40198484502DB4FF0EF
:102DD000FF30019000208DF84B0002980DF14B0759
:102DE000B0F1004F25D002200C902B200D900298BE
:102DF00000280CDA404202902D200D9007E00A21B5
:102E00000298FDF7A9FA3031029007F8011D0C99DC
:102E1000481E0C900029F2DC02980028EFD1791EA0
:102E20000D980870307800F0200040F0450007F859
:102E3000020D11A8C01BC01D02901398007800B1AC
:102E4000012000EB0901019801EBE07102980144B7
:102E50000398401A401E0390E00306D453462146CF
:102E6000179A039800F05CF805441398007818B19D
:102E70005246179990476D1CE00323D553462146CF
:102E8000179A039800F04CF805441BE0BBF1000FC3
:102E900007DB0098584504DD1098179910F80B00CF
:102EA00001E0179930205246904701980BF1010B31
:102EB000401E05F10105019004D12E2052461799BC
:102EC00090476D1CB9F10001A9F10109DEDC05E0B4
:102ED00017F8010B5246179990476D1C0299481E2E
:102EE00002900029F4DC53462146179A03989EE687
:102EF0002D0000002B000000200000002DE9F04113
:102F0000044600251E461746880404D405E03946C9
:102F10002020B0476D1C641EF9D52846BDE8F0811D
:102F20002DE9F041044600251E469046C80301D510
:102F3000302700E02027880404D505E041463846C4
:102F4000B0476D1C641EF9D52846BDE8F08100002D
:102F50000A46014601A0FFF785BB0000E58F82E627
:102F600095B0E99499E8AFAF3A20E69687E4BBB60E
:102F700020257320E7ACAC20256420E8A18C5C728E
:102F80000A0000002DE9F04F4FF6FF7A0127524664
:102F900048F205064FF00009BB4623E010F8013B5C
:102FA0008FB11D4600231C465FEAC57C07D0C4F1E3
:102FB00007080BFA08FC4CEA030C0CF0FF036D0841
:102FC000641C082CF0DB82EA03220023544615041B
:102FD00003D586EA420292B201E004EA42025B1C97
:102FE000082BF4DB491ED9D2002001465B46D407EA
:102FF00005D0C1F10F0403FA04F40443A0B252084F
:10300000491C1029F3DB80EA0900BDE8F08FC000FD
:1030100000E000BF401EFCD27047000004490A686F
:103020005206FCD5024AC1B2121D11607047000061
:103030000038014008B5FDF7D3FEFFF7F0F9FEF7C1
:1030400043FEFEF78FFEFEF7A9FEFDF763FCFFF7D8
:103050002DF91DA0FFF706FBFFF7AAF923A0FFF744
:1030600001FB4FF47A70FFF7BDF9FFF793F927A042
:10307000FFF7F8FAFEF70EFF0A26294CFDF732FC9F
:10308000FDF7A0FEA168401A6428F7D32078012834
:1030900013D1FEF7D1FF2169B1FBF6F006FB10104A
:1030A00058B9FFF77FF905466068FDF72EF902462B
:1030B0000B461CA00095FFF7D5FAFFF7B7FAFDF70E
:1030C00081FEA060DAE70000E6B58BE8B79DE4BCBE
:1030D000A0E6849FE599A8E5889DE5A78BE58C96F9
:1030E000E5AE8CE688900D0A00000000E6ADA5E88C
:1030F000BF9BE794B5E69CBAE5889DE5A78BE58C78
:1031000096E5AE8CE688905C720A0000E794B5E61E
:103110009CBAE5B7B2E4BDBFE883BD5C720A0000AB
:1031200000000020E5BD93E5898DE8B79DE7A6BBCB
:103130003A20252E316620636D2C20E794B5E69C5D
:10314000BAE78AB6E680813A2025640D0A000000BD
:1031500010B50A4CB4F8050041BA2046C91DFFF766
:1031600011FF07494988884207D134F80D1F05A08F
:10317000A288BDE81040FFF775BA10BDBC00002062
:1031800028000020646973203D2025646D6D0920AE
:103190002C20737472656E677468203D2025640D61
:1031A0000A0000000D4810B5A521017003214170EF
:1031B000202181700121C170002101714171817153
:1031C0000221C1716E2101720921FFF705FABDE8E4
:1031D000104012210148FCF7F2BF00008C000020D3
:1031E00010B50F4CA520072120700320607020200F
:1031F000A0700220E070002020716071A071204654
:10320000FFF7C0FE010AE171207209212046FFF795
:10321000E3F92046BDE810401221FCF7D0BF0000C2
:103220008C000020010202030405060708090A0BAE
:103230000C0D0E0F10100000000000000000010235
:10324000030406070809000000000102030400004F
:10325000703200080000002044000000A42600088E
:10326000B4320008440000209C040000B42600088A
:10327000010000000000000000000000000000004D
:10328000000000000000000001000000100000002D
:10329000000000000024F400000000000000000016
:1032A0000000000000000000E80300000000000033
:0432B000000000001A
:0400000508000131BD
:00000001FF
