:020000040800F2
:1000000078040020490100080B1300086B12000857
:1000100009130008430500085D14000800000000F3
:10002000000000000000000000000000DD130008D8
:10003000B1050008000000000D130008DF130008E0
:100040006301000863010008630100086301000800
:1000500063010008630100086301000863010008F0
:1000600063010008630100086301000863010008E0
:1000700063010008630100086301000863010008D0
:1000800063010008630100086301000863010008C0
:1000900063010008630100086301000863010008B0
:1000A00063010008630100086301000863010008A0
:1000B0006301000863010008630100086301000890
:1000C0006301000863010008630100086301000880
:1000D000630100086301000841140008630100087F
:1000E0006301000863010008630100086301000860
:1000F0006301000863010008630100086301000850
:10010000630100086301000863010008630100083F
:10011000630100086301000863010008630100082F
:10012000630100086301000863010008630100081F
:10013000DFF810D000F0E4F9004800473917000854
:10014000AFF3008078040020064880470648004747
:10015000FEE7FEE7FEE7FEE7FEE7FEE7FEE7FEE777
:10016000FEE7FEE73D14000831010008202A04DB09
:10017000203A21FA02F00021704721FA02F3D04020
:10018000C2F12002914008431946704740EA01033A
:100190009B0703D009E008C9121F08C0042AFAD23D
:1001A00003E011F8013B00F8013B521EF9D2704701
:1001B000D2B201E000F8012B491EFBD270470022A9
:1001C000F6E710B513460A4604461946FFF7F0FF56
:1001D000204610BD2DE9FE4F81EA030404F00044DF
:1001E00021F0004100944FF0000B23F0004350EA4F
:1001F00001045ED052EA03045BD0C3F30A54C1F396
:100200000A552C44A4F2F3340194A0FB0254C1F328
:10021000130141F48011C3F3130343F4801301FB72
:10022000024400FB034E840A970A44EA815447EAD9
:100230008357A4FB076802958D0A05FB07854FEAE3
:10024000932C04FB0C542705029D4FEA065847EAFD
:100250001637B5EB08056EEB070C870E920E47EAD2
:10026000811742EA8312A7FB0201B6EB0B0164EB94
:1002700000042B0D43EA0C335E1844EB1C50DA46A5
:100280005146E7FB0201C5F313044FEA0B3343EA7F
:1002900014534FEA0432019C43EA0603A4F10C0410
:1002A0000294009CCDE900B400F0DBF803B0BDE897
:1002B000F08F00200146F9E72DE9F04D81EA0304B3
:1002C00004F0004B21F0004514464FF0000A23F0E3
:1002D000004150EA050220D054EA01021DD0C5F3C6
:1002E0000A570246C5F31303C1F31300C1F30A56BC
:1002F00040F4801543F48013A7EB0608101BD64684
:1003000008F2FD3873EB050002D308F1010801E0A3
:1003100092185B41B8F1000F03DA00200146BDE8F6
:10032000F08D00204FF48011064684460EE0171B26
:1003300073EB050705D3121B63EB050306434CEA79
:10034000010C49084FEA300092185B4150EA01075E
:10035000EDD152EA030012D082EA040083EA0501DB
:10036000084305D0101BAB4106D20122002306E052
:1003700000224FF0004302E06FF0010253101AEB2D
:1003800006004CEB085110EB0A0041EB0B01BDE8F5
:10039000F04D00F057B80EB540F233410291002104
:1003A000CDE900110A460B4600F05BF803B000BD32
:1003B000C1F30A5210B5C1F3130140F2FF3341F407
:1003C00080119A4201DA002010BD40F233439A4274
:1003D000A2F2334203DC5242FFF7C8FE10BD904048
:1003E00010BD2DE9F05F0546002092469B468846E9
:1003F0000646814640241BE02846414647462246A1
:10040000FFF7B4FE53465A46C01A914110D3114625
:100410001846224600F086F82D1A67EB01084F4671
:1004200022460120002100F07DF817EB00094E4123
:10043000201EA4F10104DFDC484631462A4643462B
:10044000BDE8F09F10B5141E73F1000408DA401CDB
:1004500041F1000192185B411A4301D120F00100E3
:1004600010BD2DE9F04D92469B4611B1B1FA81F2D3
:1004700002E0B0FA80F22032904600F053F80446D1
:100480000F4640EA0A0041EA0B0153465A46084328
:1004900013D0114653EA010019D0C8F1400250466A
:1004A000FFF764FE05460E4650465946424600F0A8
:1004B00039F8084305D0012004E020463946BDE85C
:1004C000F08D0020054346EAE0762C4337430A9836
:1004D0006305E40AA0EB08000022FD0A44EA475441
:1004E0000A3002D500200146E9E7010510196941EB
:1004F000DDE9084500196941BDE8F04DA2E70000BB
:10050000064C074D06E0E06840F0010394E8070060
:1005100098471034AC42F6D3FFF70EFE00180008DF
:1005200020180008202A04DB203A00FA02F10020FB
:1005300070479140C2F1200320FA03F31943904021
:100540007047FEE7024840680249096800F016B8A3
:10055000001000E0180000200648016841F080719A
:100560000160054800214160016841F0010101601E
:1005700070470000FCED00E0001000E070B50D4693
:10058000FFF709FF06460C462846FFF704FF024620
:100590000B4600200549FFF78FFE32462346FFF742
:1005A00019FEBDE87040FFF703BF000080842E41B4
:1005B000704700002DE9F84F0027DFF8BCA2DFF8F4
:1005C000BCB20D460446B946504514D05C4512D025
:1005D000AB4884420FD0AB4884420CD0AA48844236
:1005E00009D0AA48844206D0A948844203D0BD213C
:1005F000A8A001F07BF828680104090C01D0000CC8
:1006000003D0BE21A3A001F071F8686800281FD0B4
:100610000128FCD01128FAD00228F8D01228F6D0F0
:10062000AB498842F3D0AB498842F0D0AA4988420E
:10063000EDD0AA498842EAD0A9498842E7D0A94921
:100640008842E4D00328E2D0BF2192A001F04EF806
:100650000BE1012000FA07F801EA0806464574D1CB
:10066000544514D05C4512D0854884420FD085484B
:1006700084420CD08448844209D08448844206D005
:100680008348844203D0CD2182A001F02FF8904806
:1006900069680A1A814259D00EDC032975D006DC3C
:1006A000002953D0012919D0022969D131E011293B
:1006B00021D0122964D13AE0B2F5881F46D006DC79
:1006C000B2F5803F42D0B2F5801F59D13EE0B2F57D
:1006D000001F3BD0B2F5041F52D137E0E868022872
:1006E00007D0012805D0032803D0D52169A000F048
:1006F000FDFFE8683EE0E868022807D0012805D041
:10070000032803D0DC2163A000F0F0FFE868001D9F
:1007100030E0E868022807D0012805D0032803D07C
:10072000E3215CA000F0E2FFE868083022E0E8681E
:10073000022807D0012805D0032803D0EA2155A0BC
:1007400000F0D4FFE8680C3014E08DE0A86880B1B8
:10075000012811D0022807D0F7214EA000F0C6FFD3
:10076000A86830B1012807D04FF00809C4F81480F8
:1007700006E00420814603E04FF00809C4F8108029
:10078000FF2E05D8224605E0FFE74FF00000F1E715
:1007900004F104024FEA870001D9A0F12000136898
:1007A0004FF00F0101FA00FC23EA0C0309FA00FCE8
:1007B00043EA0C0313606868C00055D54A48826953
:1007C00042F001028261806927F0030200F001001B
:1007D0000090464813189868BA07120F9140884352
:1007E000544501D1002118E05C4501D1012114E0FC
:1007F00023498C4201D102210FE022498C4201D1D0
:1008000003210AE020498C4201D1042105E01F495F
:100810008C4201D1052100E00621914001439960FD
:100820006868C0023248016801D5314300E0B14335
:100830000160686880022F48016801D5314300E0FB
:10084000B1430160686880032B48016801D53143DA
:1008500000E0B14301606868C0032848016801D521
:10086000314300E0B14301607F1C2E683146FE40F9
:100870007FF4EFAEBDE8F88F00080140000C0140A6
:10088000001001400014014000180140001C01400C
:10089000002001402E2E2F447269766572732F530B
:1008A000544D3332463178785F48414C5F44726929
:1008B0007665722F5372632F73746D33326631789D
:1008C000785F68616C5F6770696F2E63000000007D
:1008D0000000111000002110000031100000121063
:1008E0000000221000003210001002400000014001
:1008F000080401400C0401400404014000040140CC
:1009000070B515460C00064604D14FF4EA7108A0F4
:1009100000F0ECFE45B1012D04D040F2D51104A049
:1009200000F0E4FE346170BD2004306170BD000051
:100930002E2E2F447269766572732F53544D3332C5
:10094000463178785F48414C5F4472697665722F12
:100950005372632F73746D3332663178785F6861D8
:100960006C5F6770696F2E6300000000014880684B
:10097000704700000C000020024881680278114492
:10098000816070470C000020074810B5016841F0F5
:1009900010010160032000F091F8032000F006F838
:1009A00000F024F8002010BD0020024070B50D4D6D
:1009B00004464FF47A712878B1FBF0F00A490968CF
:1009C000B1FBF0F000F03DFC48B9102C07D200223A
:1009D0002146501E00F022F800206C6070BD0120FE
:1009E00070BD00000C000020180000200A4882B0F2
:1009F000816941F001018161816901F0010100918A
:100A0000C16941F08051C161C06900F0805000901F
:100A1000052002B000F052B80010024070B5154633
:100A20000C460646102A03D3A92114A000F05EFE4E
:100A3000102C03D3AA2111A000F058FE1E48006814
:100A4000C0F30223C3F107022046042A00D904227E
:100A5000191D072901D2002300E0DB1E012404FA3E
:100A600002F1491E014099409C40641E2C402143E4
:100A70003046BDE8704000F003BD00002E2E2F442C
:100A80007269766572732F53544D333246317878DC
:100A90005F48414C5F4472697665722F5372632FD1
:100AA00073746D3332663178785F68616C5F636F41
:100AB000727465782E6300000CED00E010B50446FA
:100AC00007280BD0062C09D0052C07D0042C05D004
:100AD000032C03D0912108A000F008FE154904F072
:100AE000070208684FF6FF03184040EA0220124A46
:100AF0001043086010BD00002E2E2F4472697665E9
:100B000072732F53544D3332463178785F48414CDD
:100B10005F4472697665722F5372632F73746D33FD
:100B200032663178785F68616C5F636F7274657884
:100B30002E6300000CED00E00000FA052DE9F047FF
:100B40000F46050078D02868C1070AD1810708D46C
:100B5000410706D4000704D440F236316FA000F0FC
:100B6000C5FD47B1012F06D0022F04D040F2373126
:100B70006AA000F0BBFD774E306800F00700B84275
:100B800009D2306820F0070038433060306800F048
:100B90000700B84277D128686F4C810729D54007F4
:100BA00003D5606840F4E06060602878000703D5F2
:100BB000606840F460506060A868A0B1802812D0DE
:100BC000902810D0A0280ED0B0280CD0C0280AD071
:100BD000D02808D0E02806D0F02804D040F25D31BB
:100BE0004EA000F083FD6068A96820F0F000084383
:100BF00060602878C00737D0686868B101281CD0C9
:100C000002281DD04FF4597144A000F06FFD6868B0
:100C1000012812D0022813D020688007002832DA79
:100C20006068696820F0030008436060FFF79EFE7B
:100C3000804641F2883910E025E020688003EDE726
:100C400020688001EAE700BFFFF790FEA0EB0801F3
:100C5000494502D90320BDE8F0876068696800F063
:100C60000C00B0EB810FEFD1306800F00700B84204
:100C70000BD9306820F0070038433060306800F04E
:100C80000700B84201D00120E5E728784FF48066DC
:100C900040074FF4A0674FF4C0684FF4E06914D5E3
:100CA000E86860B1B0420AD0B84208D0404506D0EA
:100CB000484504D040F2A23118A000F017FD60684A
:100CC000E96820F4E060084360602878000715D5E3
:100CD000286960B1B0420AD0B84208D0404506D079
:100CE000484504D040F2A9310CA000F0FFFC606838
:100CF000296920F4605040EAC100606000F034F8D7
:100D00006168164AC1F30311515CC8401449086078
:100D100014480068FFF74AFE00209CE72E2E2F445F
:100D20007269766572732F53544D33324631787839
:100D30005F48414C5F4472697665722F5372632F2E
:100D400073746D3332663178785F68616C5F72639B
:100D5000632E63000020024000100240EE170008DE
:100D600018000020100000200E4A51680E4801F0C3
:100D70000C03042B11D0082B0FD10C48C1F3834373
:100D8000C903C05C0AD55168084AC1F34041921EAC
:100D9000515C054A5043B0FBF1F0704704494843A9
:100DA000704700000010024000127A00DE170008B1
:100DB00000093D002DE9F84F04007DD0FA4EFB4DAF
:100DC00020684FF0010A4FF000084FF4803960B1FD
:100DD000C1070DD1810762D401076ED440076DD4DD
:100DE00040F26511F2A000F081FC2078C00753D0DA
:100DF00060684FF4A02740B1484506D0B84204D0FF
:100E000040F26B11EAA000F071FC6868C0F3810049
:100E1000012807D06868C0F38100022809D16868FA
:100E2000C00306D52868800336D560680028C4D082
:100E300032E06068484503D1286840F4803009E01A
:100E400008B1B8420DD0286820F4803028602868A6
:100E500020F480202860606888B1FFF787FD07468E
:100E600009E0286840F480202860E5E7FFF77EFD70
:100E7000C01B642877D828688003F7D50CE0FFF7FB
:100E800075FD074605E000BFFFF770FDC01B642835
:100E9000F0D828688003F7D4207880074ED52069E1
:100EA00030B1012804D040F29F11C1A000F01EFC17
:100EB00060691F2808D902E096E042E07BE04FF429
:100EC000D071BBA000F012FC686810F00C0F07D0C6
:100ED0006868C0F38100022809D16868C00306D49D
:100EE0002868800714D5206901287DD110E0206989
:100EF000B0B1C6F800A0FFF739FD074605E000BF16
:100F0000FFF734FDC01B0228B4D828688007F7D546
:100F10002868616920F0F80040EAC10028600DE00F
:100F2000C6F80080FFF722FD074604E0FFF71EFD2C
:100F3000C01B02289ED828688007F7D420780007B5
:100F400036D5A94FA06920B3012806D04FF4F0711F
:100F500097A000F0CBFBA069D8B1C7F800A0FFF7BD
:100F600005FD074605E054E1FFF700FDC01B022820
:100F70008ED8686A8007F7D59C484FF4FA5100680C
:100F8000B0FBF1F0009000BF0098411E0091FAD232
:100F90000EE0C7F80080FFF7E9FC074605E000BF58
:100FA000FFF7E4FCC01B0228AED8686A8007F7D4BC
:100FB000207840076ED5E068002740B1012806D0B0
:100FC000052804D040F20F2179A000F08FFBE869DA
:100FD000C00008D4E86940F08050E861E869012762
:100FE00000F08050009000E027E181480168C905C9
:100FF00012D4016841F480710160FFF7B7FC8346A9
:1010000006E000BFFFF7B2FCA0EB0B00642891D80C
:1010100077480068C005F5D5E06801280AD008B116
:10102000052811D0286A20F001002862286A20F0E3
:10103000040002E0286A40F001002862E068A8B1DC
:10104000FFF794FC83460DE0286A40F00400286214
:10105000F0E700BFFFF78AFCA0EB0B0141F28830FC
:10106000814285D8286A8007F4D50EE0FFF77EFC20
:10107000834607E0FFF77AFCA0EB0B0141F28830D2
:10108000814291D8286A8007F4D41FB1E86920F022
:101090008050E861E06900287ED0012809D002284C
:1010A00007D040F2AD2142A000F020FBE06900280B
:1010B00072D06868C0F381000228E0696DD0022810
:1010C00005D0C6F86080FFF751FC0446A4E0206A12
:1010D00030B1484504D040F2B62135A000F006FBFF
:1010E000606A70B3B0F5802F2BD0B0F5002F28D0F8
:1010F000B0F5402F25D0B0F5801F22D0B0F5A01F4D
:101100001FD0B0F5C01F1CD0B0F5E01F19D0B0F54E
:10111000001F16D0B0F5101F13D0B0F5201F10D04F
:10112000B0F5301F0DD0B0F5401F0AD0B0F5501FFC
:1011300007D0B0F5601F04D040F2B7211CA000F02A
:10114000D5FAC6F86080FFF711FC074605E000BF3E
:10115000FFF70CFCC01B02285BD828688001F7D47D
:10116000206A48450FD1A06838B1B0F5003F04D0DF
:1011700040F2CD210EA000F0B9FA6868A16820F411
:10118000003008436860D4E908010843696821F425
:1011900074110843686001E051E041E0C6F860A0C6
:1011A000FFF7E4FB04462AE0000042420010024040
:1011B0002E2E2F447269766572732F53544D33323D
:1011C000463178785F48414C5F4472697665722F8A
:1011D0005372632F73746D3332663178785F686150
:1011E0006C5F7263632E630080044242180000202B
:1011F00000700040FFF7BAFB001B022809D82868DE
:101200008001F7D51BE000BFFFF7B0FB001B0228F1
:1012100002D90320BDE8F88F28688001F4D40EE0DD
:101220000128F7D06868226A00F48031914204D125
:10123000616A00F47010884201D00120EAE70020C2
:10124000E8E710B5401EB0F1807F01D3012010BD4A
:101250004FF0E02460610F21601700F011F90020C9
:10126000A06107202061002010BDFEE7F0B585B029
:10127000002422480094019402940394816941F06F
:1012800010018161816901F010010491816941F0CF
:1012900020018161816901F020010491816941F09F
:1012A000040181618069012200F00400144E55039D
:1012B000049029463046FFF723FB124F0022E0211D
:1012C0003846FFF71DFB00950125CDE9015469461D
:1012D00030460395FFF76EF9E020CDE900050320C5
:1012E000CDE9024069463846FFF764F90022202123
:1012F0003846FFF705FB05B0F0BD000000100240C6
:101300000010014000080140FEE7FEE770470000C2
:101310002DE9F0412F4C304922466378968800250C
:1013200001278A190B2B0BD2DFE803F0060C1318E8
:101330001D20232C383C3F000870A52800D1677081
:10134000BDE8F0814870032801D1022028E06570D3
:10135000F6E788702028FAD1032021E0C870012820
:10136000F5D104201CE00871052019E04871062021
:1013700016E0887107206070B1F8050040BA401E81
:10138000A080DDE7E288B24204D21144521CC87149
:10139000E280D5E708206070E580D1E7107209206F
:1013A0006070CDE750720A2060700B491E2201F177
:1013B0001E00FEF7EBFE1E210748FEF700FF064861
:1013C0001E303044008940BA6080E580A580657099
:1013D0002770B5E71C0000203A0000207047FFF797
:1013E000CBBA30B58FB028216846FEF7E8FE14214D
:1013F0000AA8FEF7E4FE01210804CDE9001000244C
:10140000029402250491CDE907504FF4E0100990B1
:101410006846FFF7CFFC00B1FEE70F20CDE90A05D3
:101420004FF48060CDE90C4002210AA80E94FFF72A
:1014300085FB002800D0FEE70FB030BD70470000EC
:101440000548C168C1F34011002903D04068C0B20B
:10145000FFF75EBF7047000000440040FEE7000059
:101460000FB4054B10B503A9044A029800F028F800
:1014700010BC5DF814FB00002117000808000020D4
:101480000907090E002804DB00F1E02080F80014B1
:10149000704700F00F0000F1E02080F8141D704745
:1014A00002E008C8121F08C1002AFAD1704770472D
:1014B000002001E001C1121F002AFBD1704700008B
:1014C0002DE9FF4F8BB09A460F460446002606E0F2
:1014D00025280BD052460D999047641C761C207825
:1014E0000028F5D10FB03046BDE8F08F0025A946A1
:1014F00001227D4900E0054314F8013F203B02FA38
:1015000003F00842F7D120782E2817D114F8010FE4
:1015100045F004052A280ED06FF02F022078A0F1A4
:10152000300109290AD809EB890102EB410100EBDE
:101530000109641CF2E757F8049B641C20786C28AE
:101540000DD004DC4C2812D06A2811D104E0742894
:101550000DD07A280CD10AE045F4001507E0617837
:1015600045F48015814202D1641C05F58015641C88
:10157000207869283ED006DC0028B3D063280BD041
:10158000642804D136E0732810D075285CD0524608
:101590000D999047761CA5E017F8040B8DF8000014
:1015A00000208DF80100E846012003E057F8048B85
:1015B0004FF0FF3069074FF0000501D40AE06D1CC1
:1015C0004D450DDA8542FADB18F805100029F6D1F1
:1015D00006E06D1C8542FCDB18F805100029F8D1E7
:1015E0002E4404E018F8010B52460D9990476D1EE9
:1015F000F8D277E000200A90C5F302504FF00A0BB2
:1016000002280CD001CFC117021E71F100020CDAC2
:101610000023D0EB030063EB01012D2208E0FF1D46
:1016200027F00707F7E80201EEE72A0504D52B2289
:101630008DF82420012203E0EA070FD02022F7E7EB
:101640000DF12008089218E000200A90C5F302501E
:101650004FF00A0B022803D001CF00210022EFE750
:10166000FF1D27F00707F7E80201F7E75A460A9B34
:10167000FEF7B7FE303208F8012D50EA0102F5D12D
:10168000ADEB080000F1200B680701D44FF0010911
:10169000D94502DDA9EB0B0000E0002081460025C2
:1016A00006E009A85246405D0D9990476D1C761CD6
:1016B00008988542F5DB04E0302052460D999047AA
:1016C000761CB9F10001A9F10109F5DC05E018F873
:1016D000010B52460D999047761CBBF10001ABF10E
:1016E000010BF4DC641CFAE6092801000A460146F5
:1016F00001A0FFF7B5FEFEE7E58F82E695B0E9941D
:1017000099E8AFAF3A20E69687E4BBB62025732070
:10171000E7ACAC20256C6420E8A18C5C720A000068
:1017200004490A685206FCD5024AC1B2121D116072
:101730007047000000380140FFF726F9FFF751FE1F
:10174000FFF794FDFEF708FF154C002220212046EC
:10175000FFF7D6F8002280212046FFF7D1F811A02C
:10176000FFF77EFE0E4D4CF250360C350A27164C14
:10177000FEF7E8FE2168411AB142F9D320602868DB
:1017800080F0400028606168491CB1FBF7F007FB5E
:10179000101061600028EBD10CA0FFF761FEE7E7B5
:1017A000000801403D3D3D3D3D20E794B5E69CBA33
:1017B000E6B58BE8AF95E5BC80E5A78B203D3D3DC8
:1017C0003D3D0D0A0000000000000020E88489E58E
:1017D00086B220256C640D0A00000000010202039D
:1017E0000405060708090A0B0C0D0E0F1010000067
:1017F00000000000000001020304060708090000C1
:10180000201800080000002028000000A014000894
:10181000481800082800002050040000B0140008F8
:1018200000000000000000000000000001000000B7
:1018300010000000000000000024F4000000000080
:081840000000000000000000A0
:0400000508000131BD
:00000001FF
