:020000040800F2
:10000000C8040020490100083519000899110008AA
:100010004117000865020008ED1C00080000000000
:10002000000000000000000000000000D31A0008DB
:10003000670200080000000037190008D51A000800
:100040006301000863010008630100086301000800
:1000500063010008630100086301000863010008F0
:1000600063010008630100086301000863010008E0
:1000700063010008630100086301000863010008D0
:1000800063010008630100086301000863010008C0
:1000900063010008630100086301000863010008B0
:1000A00063010008630100086301000863010008A0
:1000B0006301000863010008630100086301000890
:1000C0006301000863010008630100086301000880
:1000D0006301000863010008B51C00086301000803
:1000E0006301000863010008630100086301000860
:1000F0006301000863010008630100086301000850
:10010000630100086301000863010008630100083F
:10011000630100086301000863010008630100082F
:10012000630100086301000863010008630100081F
:10013000DFF810D000F054F800480047491F0008CD
:10014000AFF30080C80400200648804706480047F7
:10015000FEE7FEE7FEE7FEE7FEE7FEE7FEE7FEE777
:10016000FEE7FEE7371B00083101000840EA010303
:100170009B0703D009E008C9121F08C0042AFAD25D
:1001800003E011F8013B00F8013B521EF9D2704721
:10019000D2B201E000F8012B491EFBD270470022C9
:1001A000F6E710B513460A4604461946FFF7F0FF76
:1001B000204610BD30B50B46014600202022012408
:1001C00009E021FA02F59D4205D303FA02F5491B25
:1001D00004FA02F52844151EA2F10102F1DC30BD3B
:1001E000064C074D06E0E06840F0010394E8070084
:1001F00098471034AC42F6D3FFF79EFFCC2000089E
:10020000EC20000810B5074C2078012809D14103E3
:10021000054800F0E3F900202070BDE8104001F02F
:10022000D3BE10BD240000200010014010B501F025
:100230004FFD04A001F05CFDBDE810400C2001F072
:100240003BBC000077616974696E6720666F72203D
:1002500053444D313820737461727420776F726B20
:10026000210D0A00FEE7704772B6FEE770B504463E
:1002700000F01AFA0546601C02D0044800780444D5
:1002800000F012FA401BA042FAD370BD1400002007
:100290002DE9F84F0027DFF8BCA2DFF8BCB20D460D
:1002A0000446B946504514D05C4512D0AB48844250
:1002B0000FD0AB4884420CD0AA48844209D0AA4847
:1002C000844206D0A948844203D0BD21A8A001F0F1
:1002D000E9FD28680104090C01D0000C03D0BE21FF
:1002E000A3A001F0DFFD686800281FD00128FCD022
:1002F0001128FAD00228F8D01228F6D0AB4988424B
:10030000F3D0AB498842F0D0AA498842EDD0AA493F
:100310008842EAD0A9498842E7D0A9498842E4D076
:100320000328E2D0BF2192A001F0BCFD0BE1012027
:1003300000FA07F801EA0806464574D1544514D07E
:100340005C4512D0854884420FD0854884420CD049
:100350008448844209D08448844206D08348844239
:1003600003D0CD2182A001F09DFD904869680A1A52
:10037000814259D00EDC032975D006DC002953D008
:10038000012919D0022969D131E0112921D012297E
:1003900064D13AE0B2F5881F46D006DCB2F5803F62
:1003A00042D0B2F5801F59D13EE0B2F5001F3BD0DC
:1003B000B2F5041F52D137E0E868022807D00128BF
:1003C00005D0032803D0D52169A001F06BFDE868B2
:1003D0003EE0E868022807D0012805D0032803D0B2
:1003E000DC2163A001F05EFDE868001D30E0E868F4
:1003F000022807D0012805D0032803D0E3215CA000
:1004000001F050FDE868083022E0E868022807D0D3
:10041000012805D0032803D0EA2155A001F042FDB0
:10042000E8680C3014E08DE0A86880B1012811D094
:10043000022807D0F7214EA001F034FDA86830B1A2
:10044000012807D04FF00809C4F8148006E0042002
:10045000814603E04FF00809C4F81080FF2E05D84C
:10046000224605E0FFE74FF00000F1E704F1040247
:100470004FEA870001D9A0F1200013684FF00F0167
:1004800001FA00FC23EA0C0309FA00FC43EA0C031E
:1004900013606868C00055D54A48826942F001027D
:1004A0008261806927F0030200F001000090464855
:1004B00013189868BA07120F91408843544501D128
:1004C000002118E05C4501D1012114E023498C4250
:1004D00001D102210FE022498C4201D103210AE01F
:1004E00020498C4201D1042105E01F498C4201D1F1
:1004F000052100E006219140014399606868C0022F
:100500003248016801D5314300E0B14301606868B9
:1005100080022F48016801D5314300E0B1430160FA
:10052000686880032B48016801D5314300E0B1437E
:1005300001606868C0032848016801D5314300E0C4
:10054000B14301607F1C2E683146FE407FF4EFAE60
:10055000BDE8F88F00080140000C01400010014088
:100560000014014000180140001C0140002001401F
:100570002E2E2F447269766572732F53544D333289
:10058000463178785F48414C5F4472697665722FD6
:100590005372632F73746D3332663178785F68619C
:1005A0006C5F6770696F2E6300000000000011101F
:1005B0000000211000003110000012100000221075
:1005C0000000321000100240000001400804014009
:1005D0000C040140040401400004014070B50C000B
:1005E000054604D14FF4F67105A001F05BFCE96803
:1005F00024EA0100214040EA0140286170BD00006A
:100600002E2E2F447269766572732F53544D3332F8
:10061000463178785F48414C5F4472697665722F45
:100620005372632F73746D3332663178785F68610B
:100630006C5F6770696F2E630000000070B515462F
:100640000C00064604D14FF4EA7108A001F02AFC20
:1006500045B1012D04D040F2D51104A001F022FCD7
:10066000346170BD2004306170BD00002E2E2F4417
:100670007269766572732F53544D333246317878F0
:100680005F48414C5F4472697665722F5372632FE5
:1006900073746D3332663178785F68616C5F677050
:1006A000696F2E63000000000148806870470000F9
:1006B000140000200248816802781144816070476C
:1006C00014000020074810B5016841F010010160D6
:1006D000032000F09BF8032000F006F800F024F857
:1006E000002010BD0020024070B50D4D04464FF4AF
:1006F0007A712878B1FBF0F00A490968B1FBF0F093
:1007000000F067FC48B9102C07D200222146501E89
:1007100000F02CF800206C6070BD012070BD00005E
:1007200014000020200000200E4808B5816941F027
:1007300001018161816901F001010091C16941F00C
:100740008051C161C06900F080500090052000F028
:100750005DF80548416821F0E06141F000714160B9
:1007600008BD0000001002400000014070B51546B1
:100770000C460646102A03D3A92114A001F092FBCF
:10078000102C03D3AA2111A001F08CFB1E48006895
:10079000C0F30223C3F107022046042A00D9042231
:1007A000191D072901D2002300E0DB1E012404FAF1
:1007B00002F1491E014099409C40641E2C40214397
:1007C0003046BDE8704001F0A3BA00002E2E2F4441
:1007D0007269766572732F53544D3332463178788F
:1007E0005F48414C5F4472697665722F5372632F84
:1007F00073746D3332663178785F68616C5F636FF4
:10080000727465782E6300000CED00E010B50446AC
:1008100007280BD0062C09D0052C07D0042C05D0B6
:10082000032C03D0912108A001F03CFB154904F0F2
:10083000070208684FF6FF03184040EA0220124AF8
:100840001043086010BD00002E2E2F44726976659B
:1008500072732F53544D3332463178785F48414C90
:100860005F4472697665722F5372632F73746D33B0
:1008700032663178785F68616C5F636F7274657837
:100880002E6300000CED00E00000FA052DE9F047B2
:100890000F46050078D02868C1070AD1810708D41F
:1008A000410706D4000704D440F236316FA001F0AE
:1008B000F9FA47B1012F06D0022F04D040F23731A8
:1008C0006AA001F0EFFA774E306800F00700B842F6
:1008D00009D2306820F0070038433060306800F0FB
:1008E0000700B84277D128686F4C810729D54007A7
:1008F00003D5606840F4E06060602878000703D5A5
:10090000606840F460506060A868A0B1802812D090
:10091000902810D0A0280ED0B0280CD0C0280AD023
:10092000D02808D0E02806D0F02804D040F25D316D
:100930004EA001F0B7FA6068A96820F0F000084303
:1009400060602878C00737D0686868B101281CD07B
:1009500002281DD04FF4597144A001F0A3FA686831
:10096000012812D0022813D020688007002832DA2C
:100970006068696820F0030008436060FFF794FE38
:10098000804641F2883910E025E020688003EDE7D9
:1009900020688001EAE700BFFFF786FEA0EB0801B0
:1009A000494502D90320BDE8F0876068696800F016
:1009B0000C00B0EB810FEFD1306800F00700B842B7
:1009C0000BD9306820F0070038433060306800F001
:1009D0000700B84201D00120E5E728784FF480668F
:1009E00040074FF4A0674FF4C0684FF4E06914D596
:1009F000E86860B1B0420AD0B84208D0404506D09D
:100A0000484504D040F2A23118A001F04BFA6068CA
:100A1000E96820F4E060084360602878000715D595
:100A2000286960B1B0420AD0B84208D0404506D02B
:100A3000484504D040F2A9310CA001F033FA6068B7
:100A4000296920F4605040EAC100606000F054F869
:100A50006168164AC1F30311515CC840144908602B
:100A600014480068FFF740FE00209CE72E2E2F441C
:100A70007269766572732F53544D333246317878EC
:100A80005F48414C5F4472697665722F5372632FE1
:100A900073746D3332663178785F68616C5F72634E
:100AA000632E63000020024000100240B2200008C4
:100AB000200000201800002004480549006849680B
:100AC000044AC1F30221515CC84070472000002055
:100AD00000100240C2200008044805490068496827
:100AE000044AC1F3C221515CC84070472000002075
:100AF00000100240C22000080E4A51680E4801F062
:100B00000C03042B11D0082B0FD10C48C1F38343E5
:100B1000C903C05C0AD55168084AC1F34041921E1E
:100B2000515C054A5043B0FBF1F07047044948431B
:100B3000704700000010024000127A00A220000856
:100B400000093D002DE9F84F04007DD0FA4EFB4D21
:100B500020684FF0010A4FF000084FF4803960B16F
:100B6000C1070DD1810762D401076ED440076DD44F
:100B700040F26511F2A001F095F92078C00753D03A
:100B800060684FF4A02740B1484506D0B84204D071
:100B900040F26B11EAA001F085F96868C0F38100AA
:100BA000012807D06868C0F38100022809D168686D
:100BB000C00306D52868800336D560680028C4D0F5
:100BC00032E06068484503D1286840F4803009E08D
:100BD00008B1B8420DD0286820F480302860286819
:100BE00020F480202860606888B1FFF75DFD07462B
:100BF00009E0286840F480202860E5E7FFF754FD0D
:100C0000C01B642877D828688003F7D50CE0FFF76D
:100C10004BFD074605E000BFFFF746FDC01B6428FB
:100C2000F0D828688003F7D4207880074ED5206953
:100C300030B1012804D040F29F11C1A001F032F977
:100C400060691F2808D902E096E042E07BE04FF49B
:100C5000D071BBA001F026F9686810F00C0F07D026
:100C60006868C0F38100022809D16868C00306D40F
:100C70002868800714D5206901287DD110E02069FB
:100C8000B0B1C6F800A0FFF70FFD074605E000BFB2
:100C9000FFF70AFDC01B0228B4D828688007F7D5E3
:100CA0002868616920F0F80040EAC10028600DE082
:100CB000C6F80080FFF7F8FC074604E0FFF7F4FCF5
:100CC000C01B02289ED828688007F7D42078000728
:100CD00036D5A94FA06920B3012806D04FF4F07192
:100CE00097A001F0DFF8A069D8B1C7F800A0FFF71E
:100CF000DBFC074605E054E1FFF7D6FCC01B0228E9
:100D00008ED8686A8007F7D59C484FF4FA5100687E
:100D1000B0FBF1F0009000BF0098411E0091FAD2A4
:100D20000EE0C7F80080FFF7BFFC074605E000BFF4
:100D3000FFF7BAFCC01B0228AED8686A8007F7D458
:100D4000207840076ED5E068002740B1012806D022
:100D5000052804D040F20F2179A001F0A3F8E8693A
:100D6000C00008D4E86940F08050E861E8690127D4
:100D700000F08050009000E027E181480168C9053B
:100D800012D4016841F480710160FFF78DFC834645
:100D900006E000BFFFF788FCA0EB0B00642891D8A9
:100DA00077480068C005F5D5E06801280AD008B189
:100DB000052811D0286A20F001002862286A20F056
:100DC000040002E0286A40F001002862E068A8B14F
:100DD000FFF76AFC83460DE0286A40F004002862B1
:100DE000F0E700BFFFF760FCA0EB0B0141F2883099
:100DF000814285D8286A8007F4D50EE0FFF754FCBD
:100E0000834607E0FFF750FCA0EB0B0141F288306E
:100E1000814291D8286A8007F4D41FB1E86920F094
:100E20008050E861E06900287ED0012809D00228BE
:100E300007D040F2AD2142A001F034F8E06900286B
:100E400072D06868C0F381000228E0696DD0022882
:100E500005D0C6F86080FFF727FC0446A4E0206AAE
:100E600030B1484504D040F2B62135A001F01AF85F
:100E7000606A70B3B0F5802F2BD0B0F5002F28D06A
:100E8000B0F5402F25D0B0F5801F22D0B0F5A01FBF
:100E90001FD0B0F5C01F1CD0B0F5E01F19D0B0F5C1
:100EA000001F16D0B0F5101F13D0B0F5201F10D0C2
:100EB000B0F5301F0DD0B0F5401F0AD0B0F5501F6F
:100EC00007D0B0F5601F04D040F2B7211CA000F09D
:100ED000E9FFC6F86080FFF7E7FB074605E000BFC3
:100EE000FFF7E2FBC01B02285BD828688001F7D41B
:100EF000206A48450FD1A06838B1B0F5003F04D052
:100F000040F2CD210EA000F0CDFF6868A16820F46A
:100F1000003008436860D4E908010843696821F497
:100F200074110843686001E051E041E0C6F860A038
:100F3000FFF7BAFB04462AE00000424200100240DC
:100F40002E2E2F447269766572732F53544D3332AF
:100F5000463178785F48414C5F4472697665722FFC
:100F60005372632F73746D3332663178785F6861C2
:100F70006C5F7263632E6300800442422000002095
:100F800000700040FFF790FB001B022809D828687A
:100F90008001F7D51BE000BFFFF786FB001B02288E
:100FA00002D90320BDE8F88F28688001F4D40EE050
:100FB0000128F7D06868226A00F48031914204D198
:100FC000616A00F47010884201D00120EAE7002035
:100FD000E8E710B5401EB0F1807F01D3012010BDBD
:100FE0004FF0E02460610F21601700F091FE0020B7
:100FF000A06107202061002010BD000070B5040032
:1010000020D0A06934490028344A354B20681BD0D1
:1010100088420AD0904208D0984206D04FF4B77167
:1010200030A000F03FFFA069F8B1A069B0F5807F63
:101030001BD0B0F5007F18D0B0F5407F15D040F23E
:101040006F110FE0012070BD88420ED090420CD08D
:1010500098420AD03249884207D03249884204D0A7
:1010600040F273111FA000F01DFFA06838B1B0F569
:10107000805F04D040F275111AA000F013FF94F8BD
:101080004100002520B984F84050204600F04CF87B
:10109000242084F841002068C16821F40051C16017
:1010A000204600F049FD2068016921F4904101616A
:1010B0002068416921F02A0141612068C16841F43A
:1010C0000051C1606564202084F8410084F842002A
:1010D0006563002070BD00000038014000440040FE
:1010E000004800402E2E2F447269766572732F538C
:1010F000544D3332463178785F48414C5F447269D1
:101100007665722F5372632F73746D333266317844
:10111000785F68616C5F756172742E630000000017
:10112000004C00400050004030B585B000240094D1
:1011300001940294039400681449884224D114480D
:10114000816941F480418161816901F480410491A8
:10115000816941F00401816180690E4D00F0040055
:1011600004904FF40070009002200190032003903F
:1011700069462846FFF78CF82815CDE90004694632
:1011800028460294FFF784F805B030BD00380140CE
:101190000010024000080140FEE700002DE9F04782
:1011A000044667480D46844215D06648844212D0F2
:1011B000654884420FD0654884420CD0644884421C
:1011C00009D06448844206D06348844203D0A221F7
:1011D00062A000F067FE286830F07B4102D010F07A
:1011E0007B4F03D0A3215DA000F05CFE2868C0F314
:1011F0000F2797FAA7F0B0FA80F69AE00120B040E6
:1012000038427CD0082E03D240F20110B04006E0F4
:10121000A6F108014FF00110884040F0806081463F
:101220006868082814D1286928B1012803D0BE2194
:101230004AA000F037FE2969E2684FEA192090FAC7
:10124000A0F0B0FA80F022EA192281400A43E2605D
:10125000686858B1042809D0082807D0012805D0AB
:10126000092803D0C5213DA000F01CFE484699FA8C
:10127000A9FC04EB1061BCFA8CFC4FEA8C084FF01F
:101280000F0C0CFA08FC99FAA9F06A680B68B0FA1E
:1012900080F0800023EA0C03824013430B606868EF
:1012A0008A46012801D0092842D1A868022807D01F
:1012B000012805D0032803D0CD2128A000F0F2FD9D
:1012C000E86828B1042803D0CE2124A000F0EAFD6C
:1012D00099FAA9FCBCFA8CFC4FEA8C084FF0030C7D
:1012E0000CFA08FC99FAA9F2AB68DAF80000B2FA35
:1012F00082F2920020EA0C009340184300E017E0CD
:1013000099FAA9FCBCFA8CFC4FEA8C084FF0040C4B
:10131000CAF800000CFA08FC99FAA9F1B1FA81F1B7
:10132000EB68890020EA0C008B401843CAF80000E3
:10133000761C37FA06F07FF461AFBDE8F087000055
:1013400000080140000C0140001001400014014061
:1013500000180140001C0140002001402E2E2F44A7
:101360007269766572732F53544D333246317878F3
:101370005F48414C5F4472697665722F5372632FE8
:1013800073746D3332663178785F6C6C5F67706947
:101390006F2E630000B5034600F0F8FA186000F005
:1013A000CBFA586000F0D6FA9860586800F0E0FA7E
:1013B000D86000BD2DE9FF5F674F0126DFF89C81F3
:1013C000DFF89C91DFF89CA1DFF89CB10D46044644
:1013D000B8420BD0444509D04C4507D0544505D000
:1013E0005C4503D0CD2161A000F05CFD6E4928680A
:1013F000884203D9CE215DA000F054FD686830B169
:10140000B0F5805F03D0CF2158A000F04BFDA86855
:10141000B0F5805F0AD048B1B0F5405F06D0B0F5B6
:10142000005F03D0D02151A000F03CFDE86848B136
:10143000B0F5806F06D0B0F5C06F03D0D1214BA0BE
:1014400000F030FD286948B1042807D0082805D0ED
:101450000C2803D0D22145A000F024FD686960B1BA
:10146000B0F5807F09D0B0F5007F06D0B0F5407FA1
:1014700003D0D3213DA000F015FDE068C0F340305B
:10148000002864D1E9686868E2680843296941F284
:101490000C639A4311430843E060A868216921F472
:1014A0004051014321616869616921F44071014340
:1014B00061616846FFF76EFFBC4201D1039808E006
:1014C000444505D04C4503D0544501D05C453ED140
:1014D0000298E0B32968D1B300EBC00202EB00121E
:1014E0008800B2FBF0F36421B3FBF1F36FF018074F
:1014F0007B43B2FBF0F5B2FBF0F705EB830532233B
:1015000003EB0515B5FBF1F5B7FBF1F705F0F005B9
:1015100005EB0715B2FBF0F7B2FBF0F0B0FBF1F012
:1015200000266FF01802504307EB800003EB001019
:10153000B0FBF1F000F00F00284480B2A060A0687A
:10154000102804D240F2351108A000F0ABFC04B022
:101550003046BDE8F09F00000038014000440040E4
:1015600000480040004C0040005000402E2E2F4408
:101570007269766572732F53544D333246317878E1
:101580005F48414C5F4472697665722F5372632FD6
:1015900073746D3332663178785F6C6C5F7573612C
:1015A00072742E630000000020AA440070B586B05B
:1015B000002417480094019402940394816941F037
:1015C00010018161816901F010010491816941F08C
:1015D00020018161816901F020010491816941F05C
:1015E000040181618069012200F00400094E550365
:1015F000049029463046FFF721F801210095CDE9F6
:101600000114039169463046FEF742FE06B070BDF4
:1016100000100240001001400C4810B50A4901605A
:101620004FF4E1314160002181600C22C160C0E9CA
:1016300004128161C161FFF7E1FC002803D0BDE81D
:101640001040FEF711BE10BD0038014030000020F0
:1016500030B58DB01C216846FEF7A1FD142107A806
:10166000FEF79DFD3148C16941F40031C161C16996
:1016700001F400310C91816941F0040181618069BC
:10168000002400F004000C9040F204400790092070
:1016900008900320CDE90904254D07A92846FFF746
:1016A0007DFD40F6080007900420089007A9284611
:1016B000FFF774FD1F480068C0F30220C0F1070166
:1016C000042900D90421021D072A01D2002000E0CC
:1016D000C01E01228A40521E02F001018140080111
:1016E000154981F80004144940202239C1F800014D
:1016F0004FF46120CDE900040C200294CDE90340B1
:10170000059406940D4C69462046FFF753FE206968
:1017100020F490402061606920F02A006061E06858
:1017200040F40050E0600DB030BD000000100240F9
:10173000000801400CED00E026E000E0004400401D
:10174000FEE70000154810B5816986B041F004013C
:1017500081618069124C00F0040004900020029026
:10176000E02000900120019002200390694620466D
:10177000FEF78EFD012220212046FEF75FFF0022AA
:1017800040212046FEF75AFF002280212046FEF726
:1017900055FF04A000F0ACFA06B010BD00100240E6
:1017A000000801404D6F746F72204750494F204927
:1017B0006E6974204F4B0D0A0000000010B50A4CF2
:1017C000207800280FD0FEF76FFFA168401A02288A
:1017D00009D9FEF769FFA06040210448FEF7FEFE2C
:1017E0006068401C606010BD0000002000080140DF
:1017F00010B50B4B01280BD0022810D100228021FC
:101800001846FEF71BFF07A0BDE8104000F070BAB5
:10181000012280211846FEF711FF08A0F4E710BD51
:1018200000080140446972656374696F6E3A204232
:1018300061636B776172640D0A0000004469726530
:101840006374696F6E3A20466F72776172640D0A35
:101850000000000070B51F4C0500627839D0100000
:1018600004D001280DD0022814D10FE0B5F5487F2F
:1018700001D2012210E040F2DC5085420AD9022256
:101880000AE0B5F57A7F05D9002205E040F2145050
:101890008542F9D392421CD06270227020780026D3
:1018A00060B12078FFF7A4FF666020782946012800
:1018B0000DD009A0BDE8704000F01ABA0022402106
:1018C0000D48FEF7BBFE666029460CA0F2E712A0A9
:1018D000F0E770BD000000204D6F746F7220426110
:1018E000636B776172642028646973743D25646D4D
:1018F0006D290D0A00000000000801404D6F746F53
:10190000722053746F702028646973743D25646D70
:101910006D290D0A000000004D6F746F7220466F34
:1019200072776172642028646973743D25646D6DFB
:10193000290D0A00FEE7704704494968044A01F08E
:10194000F0010909515CC8407047000000100240D6
:10195000B220000804494968044A01F4E06102EB3E
:1019600011210978C840704700100240C2200008C9
:1019700004494968044A01F4605102EBD121097815
:10198000C840704700100240C22000080648406866
:1019900010F00C01054805D0042903D0082901D115
:1019A00000F006B8704700000010024000127A00F4
:1019B0000B48416811F480320A4909D0B2F5803FE2
:1019C00006D14168084AC1F34041491CB2FBF1F11C
:1019D0004068022200F4701002EB904048437047C8
:1019E0000010024000093D0000127A002DE9F0418C
:1019F0002F4C304922466378D688002501278A1962
:101A00000B2B0BD2DFE803F0060C13181D20232C40
:101A1000383C3F000870A52800D16770BDE8F08110
:101A20004870032801D1022028E06570F6E788702D
:101A30002028FAD1032021E0C8700128F5D1042024
:101A40001CE00871052019E04871062016E0887135
:101A500007206070B1F8050040BA401EE080DDE765
:101A60002289B24204D21144521CC8712281D5E7A6
:101A7000082060702581D1E7107209206070CDE7E1
:101A800050720A2060700B491E2201F11E00FEF701
:101A90006DFB1E210748FEF782FB06481E303044CE
:101AA000008940BAA0802581E58065702770B5E780
:101AB000240000208A00002010B5C820FEF7D6FBC5
:101AC00000F0CCFAC820FEF7D1FBBDE8104000F0D2
:101AD000A7BA7047FEF7EEBD30B58FB02821684633
:101AE000FEF75DFB14210AA8FEF759FB012108044B
:101AF000CDE900100024029402250491CDE907509D
:101B00004FF4E01009906846FFF71CF808B172B670
:101B1000FEE70F20CDE90A054FF48060CDE90C40C7
:101B200002210AA80E94FEF7B1FE002801D072B679
:101B3000FEE70FB030BD704770B5044640684049BD
:101B4000884204D940F666613EA000F0ABF9E06837
:101B500038B1B0F5005F04D040F6676139A000F0FD
:101B6000A1F9206950B1B0F5806F07D0B0F5C06F12
:101B700004D040F6686133A000F094F960694FF634
:101B8000F371084200D120B940F669612DA000F040
:101B900089F920680169E26821F44051114301612B
:101BA0002169A0680843616908432168CA6841F255
:101BB0000C639A430243CA6020684169A26921F418
:101BC0004071114341612E492068884202D1FEF7DD
:101BD00083FF01E0FEF770FF00EBC00101EB001294
:101BE000606864218000B2FBF0F3B3FBF1F36FF0A7
:101BF00018067343B2FBF0F5B2FBF0F605EB830574
:101C0000322303EB0515B5FBF1F5B6FBF1F605F054
:101C1000F00505EB0615B2FBF0F6B2FBF0F0B0FBF9
:101C2000F1F06FF01802504306EB800003EB001058
:101C3000B0FBF1F0216800F00F002844886070BD0F
:101C400020AA44002E2E2F447269766572732F539A
:101C5000544D3332463178785F48414C5F44726965
:101C60007665722F5372632F73746D3332663178D9
:101C7000785F68616C5F756172742E6300000000AC
:101C80000038014003490A68C2F3C012002AFAD0A2
:101C9000486070470044004030B50C4605460023BC
:101CA00004E0E85CFFF7EEFF5B1CDBB2A342F8D375
:101CB00030BD00000548C168C1F34011002903D0C0
:101CC0004068C0B2FFF792BE704700000044004079
:101CD000054800BF50E8001F41F0200140E8001215
:101CE000002AF7D1704700000C440040FEE70000D6
:101CF0000FB4054B10B503A9044A029800F028F868
:101D000010BC5DF814FB0000311F0008100000201B
:101D10000907090E002804DB00F1E02080F8001418
:101D2000704700F00F0000F1E02080F8141D7047AC
:101D300002E008C8121F08C1002AFAD17047704794
:101D4000002001E001C1121F002AFBD170470000F2
:101D50002DE9FF4F89B09B460446002506E0252863
:101D60000BD05A460B999047641C6D1C20780028B4
:101D7000F5D10DB02846BDE8F08F0027B846012206
:101D8000474900E0074314F8013F203B02FA03F003
:101D90000842F7D120782E2819D114F8010F47F006
:101DA00004072A280ED06FF02F022078A0F130010E
:101DB00009290CD808EB880102EB410100EB01086E
:101DC000641CF2E70A98641C50F8048B0A9020788F
:101DD0000028CED0642808D0692806D075281ED0E7
:101DE0005A460B9990476D1C58E00A994FF00A0922
:101DF00001C90A91002802DA40422D2102E039058A
:101E000004D52B218DF82010012103E0F90704D01F
:101E10002021F7E78A4608AE0DE00021FAE70A998B
:101E20004FF00A0901C90A91F7E74946FEF7C2F9DE
:101E3000303106F8011D0028F7D1ADEB060000F1A6
:101E40002009780701D44FF00108C84502DDA8EB4E
:101E5000090000E000208046002706E008A85A4656
:101E6000C05D0B9990476D1C7F1C5745F6DB04E065
:101E700030205A460B9990476D1CB8F10001A8F12B
:101E80000108F5DC05E016F8010B5A460B9990475E
:101E90006D1CB9F10001A9F10109F4DC641C65E7CE
:101EA0000928010070472DE9F04F4FF6FF7A01270E
:101EB000524648F205064FF00009BB4623E010F8F1
:101EC000013B8FB11D4600231C465FEAC57C07D04D
:101ED000C4F107080BFA08FC4CEA030C0CF0FF03F2
:101EE0006D08641C082CF0DB82EA032200235446B0
:101EF000150403D586EA420292B201E004EA4202E6
:101F00005B1C082BF4DB491ED9D2002001465B463E
:101F1000D40705D0C1F10F0403FA04F40443A0B2BE
:101F20005208491C1029F3DB80EA0900BDE8F08F54
:101F300004490A685206FCD5024AC1B2121D11605A
:101F40007047000000380140FEF7BCFBFFF7C4FDFE
:101F5000FFF72CFBFFF760FBFFF77AFBFEF766F954
:101F6000FFF7F0FB0BA0FFF7C3FE154C154D00BFAC
:101F7000FEF748F9FFF722FCFEF796FBE168401AEE
:101F80003228F5D9FEF790FBE0602888FFF762FC65
:101F9000EEE7000053797374656D205265616479D2
:101FA000212044697374616E63652077696C6C20CD
:101FB000636F6E74726F6C206D6F746F720D0A00B8
:101FC000000000202600002010B50B4CB4F80500DE
:101FD00041BA2046C91DFFF766FF084B9988884221
:101FE00008D134F80D1F06A0A2885980BDE8104022
:101FF000FFF77EBE10BD0000A800002024000020D6
:10200000646973203D2025646D6D09202C20737454
:1020100072656E677468203D2025640D0A0000001B
:102020000D4810B5A5210170032141702021817058
:102030000121C17000210171417181710221C171C1
:102040006E2101720921FFF727FEBDE81040122121
:102050000148FEF7A4B800007800002010B50F4C2E
:10206000A52007212070032060702020A07002208E
:10207000E070002020716071A0712046FFF713FF0F
:10208000010AE171207209212046FFF705FE204672
:10209000BDE810401221FEF782B800007800002051
:1020A000010202030405060708090A0B0C0D0E0FB6
:1020B00010100000000000000000010203040607E9
:1020C000080900000000010203040000EC200008E1
:1020D0000000002030000000301D00081C21000816
:1020E0003000002098040000401D0008000000009F
:1020F00000000000000000000000000000000000E0
:102100000100000010000000000000000024F400A6
:0C211000000000000000000000000000C3
:0400000508000131BD
:00000001FF
