:020000040800F2
:10000000D006002049010008612F0008ED270008F4
:10001000A92E0008E5030008F93E000800000000D2
:10002000000000000000000000000000EF360008A3
:10003000710400080000000059340008F13600087F
:100040006301000863010008630100086301000800
:1000500063010008630100086301000863010008F0
:1000600063010008630100086301000863010008E0
:1000700063010008650400086301000863010008CB
:1000800063010008630100086301000863010008C0
:1000900063010008630100086301000863010008B0
:1000A00063010008630100086301000863010008A0
:1000B0006301000863010008630100086301000890
:1000C0006301000863010008630100086301000880
:1000D00063010008630100088D3E0008C53E00086A
:1000E0006301000863010008630100086301000860
:1000F0006301000863010008630100086301000850
:10010000630100086301000863010008630100083F
:10011000630100086301000863010008630100082F
:10012000630100086301000863010008630100081F
:10013000DFF810D000F0B2F8004800471D4D00086D
:10014000AFF30080D00600200648804706480047ED
:10015000FEE7FEE7FEE7FEE7FEE7FEE7FEE7FEE777
:10016000FEE7FEE7533700083101000840EA0103CB
:100170009B0703D009E008C9121F08C0042AFAD25D
:1001800003E011F8013B00F8013B521EF9D2704721
:10019000D2B201E000F8012B491EFBD270470022C9
:1001A000F6E710B513460A4604461946FFF7F0FF76
:1001B000204610BD30B505462A460B4612F8010B05
:1001C00013F8014B08B1A042F8D01CB1002802D0AE
:1001D0006D1CF1E7284630BD421C10F8011B0029B8
:1001E000FBD1801A704770B5064604F08BFB04689B
:1001F00005460A220021304600F018F82C6070BD38
:1002000030B50B46014600202022012409E021FAE6
:1002100002F59D4205D303FA02F5491B04FA02F5E3
:100220002844151EA2F10102F1DC30BD2DE9F04792
:1002300091460F4680460446002614F8015B2DB116
:1002400000F03EF80068405DC007F6D12B2D02D0CB
:100250002D2D18D0641E4A463946204600F034F849
:1002600027B13968A14201D1C7F8008071054FF06C
:1002700002040BD54042002803DD04F043FB046078
:10028000A007BDE8F08746F48066E4E70028F8DAC6
:1002900004F038FB04606FF00040F2E7064C074DB5
:1002A00006E0E06840F0010394E807009847103446
:1002B000AC42F6D3FFF740FF3C5300085C53000804
:1002C00000487047185200082DE9F05F8246007818
:1002D000002715468B460AF10104B946302801D0A3
:1002E0009DB113E014F8010B0127782803D058289A
:1002F00001D045B10AE00DB1102D07D1002710251E
:1003000014F8010B02E0082500E00A250026B0469B
:100310000EE005FB080005FB06F1012701EB104686
:100320001FFA80F8B6F5803F00D3B94614F8010BE8
:10033000294600F018F80028EBDABBF1000F05D0D1
:100340000FB1641E00E05446CBF80040B9F1000F35
:1003500006D004F0D7FA02210160C81EBDE8F09F64
:1003600048EA0640FAE73A2800D2303820F0200266
:10037000412A01D3A2F13700884201D34FF0FF3068
:100380007047000010B5074C2078012809D14103BF
:10039000054800F033FF00202070BDE8104004F055
:1003A00079BE10BD400000200010014010B503F0E0
:1003B0007BFD04A004F072FABDE810400C2003F0AD
:1003C00089B9000077616974696E6720666F722071
:1003D00053444D313820737461727420776F726B9F
:1003E000210D0A00FEE70000094910B5087A00282F
:1003F00008D0084A002000BF32F810304C8AA342CF
:1004000001D3002010BD401C0A28F5DB012010BDDF
:10041000000000205000002030B5104C207A002849
:1004200018D000220E4B4FF6FF71104633F81050D3
:10043000954201D933F8102033F810508D4201D283
:1004400033F81010401C0A28F0DB501AA18A8842A9
:1004500001DA012030BD002030BD00000000002086
:1004600050000020014800F015BB00003C020020B5
:10047000704700002DE9F04391B0070070D07C4830
:100480004178002501264FF0020801290AD00446D0
:10049000C078032843D0E08987426BD3E0780028F6
:1004A00058D154E08178012917D08178022924D0CD
:1004B0008178032954D10178002951D00570C57085
:1004C00045718571002240216A4800F0C7FE6AA08C
:1004D00004F0E4F919216DA0ADE0017801293FD0C5
:1004E0000670C67045718571012002F029FD6EA06D
:1004F00004F0D4F9232171A09DE0017802292FD0C6
:1005000080F8008080F8038046718571022002F037
:1005100017FD73A004F0C2F9232176A08BE000F050
:10052000D3FEE169401A40F6B831884218D384F806
:10053000038084F800806671A571022002F000FD3E
:10054000E18975A004F0AAF9232181A073E0607904
:10055000002805D0E57025706571A571E18900E07E
:1005600082E084A004F09AF98DA004F097F91D218F
:1005700096A060E0607901281AD0208A87425FD86F
:10058000E07888B1E5702570394697A004F086F9C7
:100590003A469FA1684604F091F96846FFF71CFEB1
:1005A00081B2684604F0D2F8A079274668B11EE00F
:1005B000E078022858D084F8038084F8008011B0D5
:1005C0000220BDE8F04302F0BBBCBE719AA004F06B
:1005D00065F900F079FE044641F2883902E00A200C
:1005E00000F054FC00F070FE011B4945F7D3B879C8
:1005F0003C46012838D1FFF7F7FE032760B1E770CA
:10060000257000F061FEE06184F8048093A004F09E
:1006100045F91C219CA00EE0FFF7FEFE002823D028
:10062000E770257000F050FEE06126719DA004F097
:1006300035F91C21A6A011B0BDE8F04304F086B83E
:10064000208A874210D9E07801280DD0E670267004
:10065000A571012002F074FC228A11B03946BDE870
:10066000F043A2A004F01AB911B0BDE8F083000075
:100670000000002000080140E6898BE58AA83A20A6
:10068000E680A5E5819C0D0A0000000021212120C3
:10069000454D455247454E43592053544F50202114
:1006A00021210D0A00000000E6898BE58AA83A2086
:1006B000E4B88BE992BB0D0A000000002121212043
:1006C0004D414E55414C3A204452494C4C494E47BD
:1006D000205354415254202121210D0A00000000D2
:1006E000E6898BE58AA83A20E4B88AE68F900D0A5D
:1006F00000000000212121204D414E55414C3A205F
:10070000524556455253494E472053544152542066
:100710002121210D0A000000E2AC86EFB88F20E60F
:100720009A82E5819CE7BB93E69D9FEFBC8CE58FA9
:100730008DE8BDACE4B88AE68F90EFBC88E79BAE4D
:10074000E6A08725646D6DEFBC895C720A0000002D
:1007500021212120414354494F4E3A2052455645CC
:100760005253494E47205354415254202121210DC8
:100770000A000000F09F8F8120E588B0E8BEBEE54A
:100780009CB0E99DA2E99888E580BC2025646D6D48
:10079000EFBC8CE5819CE6ADA25C720A0000000013
:1007A0002D2D2D2D2D2D2D2D2D2D2D2D2D2D2D2D79
:1007B0002D2D2D2D2D2D2D2D2D2D2D2D2D2D2D2D69
:1007C0002D2D2D2D2D2D2D2D0D0A00002121212027
:1007D0005354415455533A2041542047524F554E9B
:1007E00044202121210D0A00E28FB9EFB88F20E5C6
:1007F0008685E7AEA1E588B0E4BD8D2025646D6DEA
:10080000EFBC8CE5819CE6ADA25C720A00000000A2
:100810002A2A2A205354415455533A20494E5F50B6
:100820004C4143452028646973743D25646D6D29EE
:10083000202A2A2A0D0A0000F09F948D20E5BC8012
:10084000E5A78BE58DA1E88AAF2FE6BBA1E88AAFCB
:10085000E79B91E6B58B2E2E2E0D0A00E28FB8EFA6
:10086000B88F20E6BBA1E88AAFEFBC81E69A82E5AB
:10087000819C33E7A792E5908EE58F8DE8BDACE4CF
:10088000B88AE68F900D0A0021212120414C455263
:10089000543A20434F52452046554C4C20212121AB
:1008A0000D0A0000E29AA0EFB88F20E58DA1E88A3A
:1008B000AFEFBC81E69A82E5819C33E7A792E59091
:1008C0008EE58F8DE8BDACE4B88AE68F900D0A0006
:1008D00021212120414C4552543A20434F5245207A
:1008E000535455434B202121210D0A00E2AC87EFE0
:1008F000B88F20E8B79DE7A6BB3D25646D6D203E0F
:100900002025646D6DEFBC8CE6ADA3E8BDACE4B80A
:100910008BE992BB5C720A0072B6FEE710B590F8E4
:1009200021100022022905D00421816380F82020B3
:10093000012010BD01680B6823F00E030B600168F5
:100940000B6823F001030B6090F84030C46B012169
:1009500001FA03F3636080F8211080F8202010462C
:1009600010BD00002DE9F05F90F82110002402294D
:1009700003D004218163012485E001680A6822F024
:100980000E020A6001680A6822F001020A603F4E06
:100990003E4FB215DFF8F4C0DFF8F090DFF8ECA0BE
:1009A000DFF8E8B0DFF8E4E00168783F13011502F2
:1009B000ACF1640CA9F15009AAF13C0AABF1280B87
:1009C000AEF1140E4FF48018B14227D9B9420ED0BF
:1009D000614512D049451DD0514518D0594518D010
:1009E000714501D1424615E0294EB14201D10122A3
:1009F00010E0274E1436B14201D110220AE0244EF5
:100A00002836B14206D0224A3C32914201D11A46E0
:100A100000E02A461E49091F0A602BE0B94213D0A4
:100A2000614517D0494522D051451DD059451DD0AB
:100A3000714501D142461AE0B14202D14FF08072B5
:100A400015E0134EB14201D1012210E0104E1436D0
:100A5000B14201D110220AE00D4E2836B14206D033
:100A60000B4A3C32914201D11A4600E02A4607491E
:100A700080394A60012180F82110002180F820107F
:100A8000416B01B188472046BDE8F09F80000240DD
:100A9000080402402DE9F05FC16B0A6801680B6829
:100AA000046C4FF0040808FA04F8844D844E854F16
:100AB000DFF814C2DFF81492DFF814A2DFF814B2E2
:100AC000DFF814E218EA020F65D05FEA437862D5D6
:100AD0000A68920603D40A6822F004020A60DFF86A
:100AE000F0814FF48062016808F1140813011402C8
:100AF000414524D9A9420DD0B1420FD0B9421AD0F4
:100B0000614515D0494515D0514501D1120312E078
:100B1000594501D104220EE0714501D140220AE07D
:100B20006D4D1435A94206D06B4A2832914201D14D
:100B30001A4600E022466749091F0A6029E0A942D7
:100B400013D0B14215D0B94220D061451BD04945E0
:100B50001BD0514502D14FF4800217E0414502D12C
:100B60004FF0806212E0594501D104220EE0714538
:100B700001D140220AE0584D1435A94206D0564A08
:100B80002832914201D11A4600E022464B490839E9
:100B90004A60C16A71E04FF0020808FA04F818EAE6
:100BA000020F70D05FEA83786DD50A68920606D48A
:100BB0000A6822F00A020A60012180F82110DFF899
:100BC00010814FF40072016808F114081301140237
:100BD000414524D9A9420DD0B1420FD0B9421AD013
:100BE000614515D0494515D0514501D1120312E098
:100BF000594501D102220EE0714501D120220AE0BF
:100C0000354D1435A94206D0334A2832914201D1DC
:100C10001A4600E022462F49091F0A6029E0A9422E
:100C200013D0B14215D0B94220D061451BD04945FF
:100C30001BD0514502D14FF4001217E0414502D1BB
:100C40004FF0007212E0594501D102220EE07145C9
:100C500001D120220AE0204D1435A94206D01E4AB7
:100C60002832914201D11A4600E022461349083940
:100C70004A60002180F82010816A00291CD0BDE85C
:100C8000F05F0847FFE70825A540154214D01A0772
:100C900012D50A6822F00E020A6090F84020C36B59
:100CA000012101FA02F25A60816380F821100021CB
:100CB00080F82010016BE0E7BDE8F09F08000240DB
:100CC0001C00024030000240440002405800024034
:100CD0006C000240080402401C04024070B504008D
:100CE0007ED05A4920685A4D88422DD05749143138
:100CF000884229D055492831884225D053493C3172
:100D0000884221D05149503188421DD04F49643129
:100D1000884219D04D497831884215D0A84213D065
:100D20004B49143188420FD04949283188420BD0B1
:100D300047493C31884207D045495031884203D069
:100D4000992144A003F098FF606840B1102806D0B4
:100D5000B0F5804F03D09A213EA003F08DFFA0682C
:100D6000402804D018B19B213AA003F085FFE06829
:100D7000802804D018B19C2136A003F07DFF2069A3
:100D800048B1B0F5807F06D0B0F5007F03D09D213B
:100D900030A003F071FF606948B1B0F5806F06D0F4
:100DA000B0F5006F03D09E212AA003F065FFA06973
:100DB00028B1202803D09F2126A003F05DFFE06921
:100DC00060B1B0F5805F09D0B0F5005F06D0B0F536
:100DD000405F03D0A0211FA003F04EFF142000E0CD
:100DE0000CE02168A9420BD2184A52420A44B2FBD5
:100DF000F0F080002064154808380AE0012070BD3A
:100E0000134A52420A44B2FBF0F0800020641048BA
:100E10000838E063022084F821000A6843F6F07085
:100E20008243F4E901031843D4E902352B43184304
:100E30002369184363691843A36918431043086082
:100E40000020606301216177207770BD08000240B7
:100E5000080402402E2E2F447269766572732F5358
:100E6000544D3332463178785F48414C5F44726963
:100E70007665722F5372632F73746D3332663178D7
:100E8000785F68616C5F646D612E630070B50446C5
:100E900000F01AFA0546601C02D0044800780444A9
:100EA00000F012FA401BA042FAD370BD30000020BF
:100EB0002DE9F84F0027DFF8BCA2DFF8BCB20D46E1
:100EC0000446B946504514D05C4512D0AB48844224
:100ED0000FD0AB4884420CD0AA48844209D0AA481B
:100EE000844206D0A948844203D0BD21A8A003F0C3
:100EF000C3FE28680104090C01D0000C03D0BE21F8
:100F0000A3A003F0B9FE686800281FD00128FCD018
:100F10001128FAD00228F8D01228F6D0AB4988421E
:100F2000F3D0AB498842F0D0AA498842EDD0AA4913
:100F30008842EAD0A9498842E7D0A9498842E4D04A
:100F40000328E2D0BF2192A003F096FE0BE101201E
:100F500000FA07F801EA0806464574D1544514D052
:100F60005C4512D0854884420FD0854884420CD01D
:100F70008448844209D08448844206D0834884420D
:100F800003D0CD2182A003F077FE904869680A1A49
:100F9000814259D00EDC032975D006DC002953D0DC
:100FA000012919D0022969D131E0112921D0122952
:100FB00064D13AE0B2F5881F46D006DCB2F5803F36
:100FC00042D0B2F5801F59D13EE0B2F5001F3BD0B0
:100FD000B2F5041F52D137E0E868022807D0012893
:100FE00005D0032803D0D52169A003F045FEE868A9
:100FF0003EE0E868022807D0012805D0032803D086
:10100000DC2163A003F038FEE868001D30E0E868EA
:10101000022807D0012805D0032803D0E3215CA0D3
:1010200003F02AFEE868083022E0E868022807D0CA
:10103000012805D0032803D0EA2155A003F01CFEA7
:10104000E8680C3014E08DE0A86880B1012811D068
:10105000022807D0F7214EA003F00EFEA86830B199
:10106000012807D04FF00809C4F8148006E00420D6
:10107000814603E04FF00809C4F81080FF2E05D820
:10108000224605E0FFE74FF00000F1E704F104021B
:101090004FEA870001D9A0F1200013684FF00F013B
:1010A00001FA00FC23EA0C0309FA00FC43EA0C03F2
:1010B00013606868C00055D54A48826942F0010251
:1010C0008261806927F0030200F001000090464829
:1010D00013189868BA07120F91408843544501D1FC
:1010E000002118E05C4501D1012114E023498C4224
:1010F00001D102210FE022498C4201D103210AE0F3
:1011000020498C4201D1042105E01F498C4201D1C4
:10111000052100E006219140014399606868C00202
:101120003248016801D5314300E0B143016068688D
:1011300080022F48016801D5314300E0B1430160CE
:10114000686880032B48016801D5314300E0B14352
:1011500001606868C0032848016801D5314300E098
:10116000B14301607F1C2E683146FE407FF4EFAE34
:10117000BDE8F88F00080140000C0140001001405C
:101180000014014000180140001C014000200140F3
:101190002E2E2F447269766572732F53544D33325D
:1011A000463178785F48414C5F4472697665722FAA
:1011B0005372632F73746D3332663178785F686170
:1011C0006C5F6770696F2E630000000000001110F3
:1011D0000000211000003110000012100000221049
:1011E00000003210001002400000014008040140DD
:1011F0000C040140040401400004014070B50C00DF
:10120000054604D14FF4F67105A003F035FDE968F9
:1012100024EA0100214040EA0140286170BD00003D
:101220002E2E2F447269766572732F53544D3332CC
:10123000463178785F48414C5F4472697665722F19
:101240005372632F73746D3332663178785F6861DF
:101250006C5F6770696F2E630000000070B5154603
:101260000C00064604D14FF4EA7108A003F004FD17
:1012700045B1012D04D040F2D51104A003F0FCFCCF
:10128000346170BD2004306170BD00002E2E2F44EB
:101290007269766572732F53544D333246317878C4
:1012A0005F48414C5F4472697665722F5372632FB9
:1012B00073746D3332663178785F68616C5F677024
:1012C000696F2E63000000000148806870470000CD
:1012D0003000002002488168027811448160704724
:1012E00030000020074810B5016841F0100101608E
:1012F000032000F0CDF8032000F006F800F024F8F9
:10130000002010BD0020024070B50D4D04464FF482
:101310007A712878B1FBF0F00A490968B1FBF0F066
:1013200000F099FC48B9102C07D200222146501E2B
:1013300000F05EF800206C6070BD012070BD000000
:10134000300000203C0000200E4808B5816941F0C3
:1013500001018161816901F001010091C16941F0E0
:101360008051C161C06900F080500090052000F0FC
:101370008FF80548416821F0E06141F0007141605B
:1013800008BD0000001002400000014010B504003C
:1013900003D5BD2107A003F06FFC002C09DB04F08E
:1013A0001F01012088406109890001F1E021C1F895
:1013B000000110BD2E2E2F447269766572732F5373
:1013C000544D3332463178785F48414C5F447269FE
:1013D0007665722F5372632F73746D333266317872
:1013E000785F68616C5F636F727465782E6300006C
:1013F00070B515460C460646102A03D3A92114A041
:1014000003F03AFC102C03D3AA2111A003F034FC02
:101410001E480068C0F30223C3F107022046042AD5
:1014200000D90422191D072901D2002300E0DB1E88
:10143000012404FA02F1491E014099409C40641EB7
:101440002C4021433046BDE8704003F04BBA000009
:101450002E2E2F447269766572732F53544D33329A
:10146000463178785F48414C5F4472697665722FE7
:101470005372632F73746D3332663178785F6861AD
:101480006C5F636F727465782E6300000CED00E092
:1014900010B5044607280BD0062C09D0052C07D020
:1014A000042C05D0032C03D0912108A003F0E4FB09
:1014B000154904F0070208684FF6FF03184040EA98
:1014C0000220124A1043086010BD00002E2E2F4447
:1014D0007269766572732F53544D33324631787882
:1014E0005F48414C5F4472697665722F5372632F77
:1014F00073746D3332663178785F68616C5F636FE7
:10150000727465782E6300000CED00E00000FA05AF
:101510002DE9F0470F46050078D02868C1070AD1A9
:10152000810708D4410706D4000704D440F23631BD
:101530006FA003F0A1FB47B1012F06D0022F04D00A
:1015400040F237316AA003F097FB774E306800F025
:101550000700B84209D2306820F0070038433060F5
:10156000306800F00700B84277D128686F4C8107D7
:1015700029D5400703D5606840F4E06060602878B2
:10158000000703D5606840F460506060A868A0B1AF
:10159000802812D0902810D0A0280ED0B0280CD0CF
:1015A000C0280AD0D02808D0E02806D0F02804D0DF
:1015B00040F25D314EA003F05FFB6068A96820F047
:1015C000F000084360602878C00737D0686868B1C9
:1015D00001281CD002281DD04FF4597144A003F0FB
:1015E0004BFB6868012812D0022813D020688007BE
:1015F000002832DA6068696820F003000843606000
:10160000FFF762FE804641F2883910E025E020684D
:101610008003EDE720688001EAE700BFFFF754FE92
:10162000A0EB0801494502D90320BDE8F0876068B6
:10163000696800F00C00B0EB810FEFD1306800F06A
:101640000700B8420BD9306820F0070038433060FB
:10165000306800F00700B84201D00120E5E72878A3
:101660004FF4806640074FF4A0674FF4C0684FF412
:10167000E06914D5E86860B1B0420AD0B84208D039
:10168000404506D0484504D040F2A23118A003F0EE
:10169000F3FA6068E96820F4E06008436060287845
:1016A000000715D5286960B1B0420AD0B84208D009
:1016B000404506D0484504D040F2A9310CA003F0C3
:1016C000DBFA6068296920F4605040EAC10060607C
:1016D00000F054F86168164AC1F30311515CC84028
:1016E0001449086014480068FFF70EFE00209CE7CC
:1016F0002E2E2F447269766572732F53544D3332F8
:10170000463178785F48414C5F4472697665722F44
:101710005372632F73746D3332663178785F68610A
:101720006C5F7263632E6300002002400010024071
:101730007E5100083C000020340000200448054988
:1017400000684968044AC1F30221515CC8407047EF
:101750003C000020001002408E510008044805495A
:1017600000684968044AC1F3C221515CC84070470F
:101770003C000020001002408E5100080E4A5168C3
:101780000E4801F00C03042B11D0082B0FD10C488C
:10179000C1F38343C903C05C0AD55168084AC1F349
:1017A0004041921E515C054A5043B0FBF1F0704736
:1017B00004494843704700000010024000127A00BC
:1017C0006E51000800093D002DE9F84F04007DD05E
:1017D000FA4EFB4D20684FF0010A4FF000084FF41D
:1017E000803960B1C1070DD1810762D401076ED481
:1017F00040076DD440F26511F2A003F03DFA207865
:10180000C00753D060684FF4A02740B1484506D0C8
:10181000B84204D040F26B11EAA003F02DFA6868D8
:10182000C0F38100012807D06868C0F38100022856
:1018300009D16868C00306D52868800336D560687A
:101840000028C4D032E06068484503D1286840F4DD
:10185000803009E008B1B8420DD0286820F480300B
:101860002860286820F480202860606888B1FFF72D
:101870002BFD074609E0286840F480202860E5E752
:10188000FFF722FDC01B642877D828688003F7D5AE
:101890000CE0FFF719FD074605E000BFFFF714FD58
:1018A000C01B6428F0D828688003F7D4207880070C
:1018B0004ED5206930B1012804D040F29F11C1A05B
:1018C00003F0DAF960691F2808D902E096E042E0E7
:1018D0007BE04FF4D071BBA003F0CEF9686810F044
:1018E0000C0F07D06868C0F38100022809D168682E
:1018F000C00306D42868800714D5206901287DD14B
:1019000010E02069B0B1C6F800A0FFF7DDFC074683
:1019100005E000BFFFF7D8FCC01B0228B4D8286838
:101920008007F7D52868616920F0F80040EAC10017
:1019300028600DE0C6F80080FFF7C6FC074604E00B
:10194000FFF7C2FCC01B02289ED828688007F7D486
:101950002078000736D5A94FA06920B3012806D00A
:101960004FF4F07197A003F087F9A069D8B1C7F8D8
:1019700000A0FFF7A9FC074605E054E1FFF7A4FC2F
:10198000C01B02288ED8686A8007F7D59C484FF4A0
:10199000FA510068B0FBF1F0009000BF0098411EC2
:1019A0000091FAD20EE0C7F80080FFF78DFC0746E1
:1019B00005E000BFFFF788FCC01B0228AED8686AAC
:1019C0008007F7D4207840076ED5E068002740B143
:1019D000012806D0052804D040F20F2179A003F099
:1019E0004BF9E869C00008D4E86940F08050E8612C
:1019F000E869012700F08050009000E027E181486D
:101A00000168C90512D4016841F480710160FFF7D3
:101A10005BFC834606E000BFFFF756FCA0EB0B0023
:101A2000642891D877480068C005F5D5E06801289A
:101A30000AD008B1052811D0286A20F001002862D8
:101A4000286A20F0040002E0286A40F001002862C1
:101A5000E068A8B1FFF738FC83460DE0286A40F043
:101A600004002862F0E700BFFFF72EFCA0EB0B019B
:101A700041F28830814285D8286A8007F4D50EE08B
:101A8000FFF722FC834607E0FFF71EFCA0EB0B01EB
:101A900041F28830814291D8286A8007F4D41FB17E
:101AA000E86920F08050E861E06900287ED00128D4
:101AB00009D0022807D040F2AD2142A003F0DCF8A3
:101AC000E069002872D06868C0F381000228E069EC
:101AD0006DD0022805D0C6F86080FFF7F5FB0446FC
:101AE000A4E0206A30B1484504D040F2B62135A0C8
:101AF00003F0C2F8606A70B3B0F5802F2BD0B0F558
:101B0000002F28D0B0F5402F25D0B0F5801F22D06F
:101B1000B0F5A01F1FD0B0F5C01F1CD0B0F5E01F5E
:101B200019D0B0F5001F16D0B0F5101F13D0B0F5C6
:101B3000201F10D0B0F5301F0DD0B0F5401F0AD0D7
:101B4000B0F5501F07D0B0F5601F04D040F2B721A8
:101B50001CA003F091F8C6F86080FFF7B5FB0746BC
:101B600005E000BFFFF7B0FBC01B02285BD8286868
:101B70008001F7D4206A48450FD1A06838B1B0F58C
:101B8000003F04D040F2CD210EA003F075F8686844
:101B9000A16820F4003008436860D4E908010843D4
:101BA000696821F474110843686001E051E041E084
:101BB000C6F860A0FFF788FB04462AE00000424216
:101BC000001002402E2E2F447269766572732F53D7
:101BD000544D3332463178785F48414C5F447269E6
:101BE0007665722F5372632F73746D33326631785A
:101BF000785F68616C5F7263632E630080044242A9
:101C00003C00002000700040FFF75EFB001B022834
:101C100009D828688001F7D51BE000BFFFF754FB07
:101C2000001B022802D90320BDE8F88F2868800134
:101C3000F4D40EE00128F7D06868226A00F48031FD
:101C4000914204D1616A00F47010884201D00120F1
:101C5000EAE70020E8E710B5401EB0F1807F01D32D
:101C6000012010BD4FF0E02460610F21601702F0E9
:101C700039FE0020A06107202061002010BD000077
:101C80002DE9F05F04460068364E374FDFF8DC8000
:101C9000DFF8DC90DFF8DCA00D464FF0804BB0425F
:101CA00014D0B84212D0584510D040450ED0484507
:101CB0000CD050450AD03049884207D02F4988427D
:101CC00004D040F2B4712EA002F0D6FF286890B183
:101CD000102810D020280ED030280CD040280AD050
:101CE000502808D0602806D0702804D040F2B57182
:101CF00023A002F0C1FF6868802805D020B140F21F
:101D0000B6711FA002F0B8FF94F83C00012827D05C
:101D1000012284F83C20022084F83D0021684868B4
:101D20008B6820F0700C286840EA0C00486020683E
:101D3000B04209D0B84207D0584505D0404503D03D
:101D4000484501D0504504D1696823F08003194308
:101D5000816084F83D20002084F83C00BDE8F09FBD
:101D60000220FBE7002C0140003401400004004049
:101D700000080040000C004000100040001400402B
:101D80002E2E2F447269766572732F53544D333261
:101D9000463178785F48414C5F4472697665722FAE
:101DA0005372632F73746D3332663178785F686174
:101DB0006C5F74696D5F65782E63000000B585B057
:101DC0000021009101910291039100680B49884222
:101DD00011D10B48816941F0040181618069694634
:101DE00000F0040004904020009002200190039035
:101DF0000448FFF75DF805B000BD00000004004096
:101E000000100240000801402DE9F04716000D4681
:101E100004464FF000090CD0042E0AD0082E08D03A
:101E20000C2E06D03C2E04D041F27E016BA002F0B5
:101E300023FF2868602806D0702804D041F27F0173
:101E400066A002F019FFA86830B1022804D04FF450
:101E5000845162A002F010FF286930B1042804D038
:101E600041F281015DA002F007FF94F83C000128D7
:101E700018D001206749684A684B694FDFF8A4C150
:101E800084F83C004FF0804876B1042E31D0082E03
:101E900056D00C2E7AD08146002084F83C0048466B
:101EA000BDE8F0870220FBE7206888420ED0904210
:101EB0000CD040450AD0984208D0B84206D06045C0
:101EC00004D041F28B0145A002F0D6FE29462068DD
:101ED00001F086FC2068816941F008018161206879
:101EE000816921F004018161206881692A691143B7
:101EF00024E0206888420ED090420CD040450AD0A1
:101F0000984208D0B84206D0604504D041F29C0106
:101F100032A002F0B1FE2946206801F0D3FC20680F
:101F2000816941F4006181612068816921F48061E7
:101F30008161206881692A6941EA02218161ABE7F8
:101F4000206888420ED090420CD040450AD098427A
:101F500008D0B84206D0604504D041F2AD011FA0C0
:101F600002F08AFE2946206801F022FD2068C1693E
:101F700041F00801C1612068C16921F00401C1611B
:101F80002068C1692A69114325E0FFE7206888427B
:101F90000ED090420CD040450AD0984208D0B842AA
:101FA00006D0604504D041F2BE010CA002F064FEF0
:101FB0002946206801F072FD2068C16941F4006182
:101FC000C1612068C16921F48061C1612068C16973
:101FD0002A6941EA0221C1615EE700002E2E2F44EA
:101FE0007269766572732F53544D33324631787867
:101FF0005F48414C5F4472697665722F5372632F5C
:1020000073746D3332663178785F68616C5F7469C0
:102010006D2E6300002C014000340140000400409C
:1020200000080040000C004010B5040051D03C49AD
:102030002068884219D03B49884216D0B0F1804FC1
:1020400013D03949884210D0384988420DD03849D8
:1020500088420AD03749884207D03749884204D09D
:1020600040F22C5135A002F007FEA06860B11028A4
:102070000AD0202808D0402806D0602804D040F29A
:102080002D512EA002F0F8FD206950B1B0F5807FEF
:1020900007D0B0F5007F04D040F22E5127A002F007
:1020A000EBFDE0684FF6FE71401E884204D940F215
:1020B0002F5122A002F0E0FDA06930B1802804D0A9
:1020C0004FF4A6611DA002F0D7FD94F83D0010B1B9
:1020D00007E0012010BD002084F83C00204600F0FD
:1020E00049F8022084F83D00211D206801F032FBF0
:1020F000012084F8460084F83E0084F83F0084F80C
:10210000400084F8410084F8420084F8430084F8D9
:10211000440084F8450084F83D00002010BD000014
:10212000002C014000340140000400400008004041
:10213000000C004000100040001400402E2E2F44E0
:102140007269766572732F53544D33324631787805
:102150005F48414C5F4472697665722F5372632FFA
:1021600073746D3332663178785F68616C5F74695F
:102170006D2E630008B500680649884208D10648FC
:10218000C16941F00201C161C06900F00200009024
:1021900008BD000000040040001002407047704776
:1021A000F8B5016804460868CA684B6910F00F0F5B
:1021B0004FF0000559D003F0010602F49077374341
:1021C00065D0C10705D0D10503D5616C41F001018F
:1021D0006164410705D5D90703D0616C41F0020164
:1021E0006164810705D5D90703D0616C41F0040112
:1021F0006164010707D502F02001314303D0616C0F
:1022000041F008016164616C00293AD0800604D570
:10221000900602D5204601F0C2FC20684069616C3E
:10222000C0F38010090700D460B3204601F090FC91
:1022300020684069400621D52068143050E8001F0E
:1022400021F0400140E80012002AF5D1E06BA8B16E
:102250006D494163E06BFEF785FB002811D0E06B10
:10226000416B01B0BDE8F040084783060FD59306E7
:102270000DD52046BDE8F84001F091BC2046FFF79F
:102280008EFFF8BD2046FFF78AFF6564F8BD266B18
:102290002023012E7CD1C6067AD5D60678D50868CB
:1022A0004868009048694FF00206400640D5E16B4F
:1022B000086840680004000CE8D0A28D8242E5D98D
:1022C000E085886920282DD020680C3050E8001F58
:1022D00021F4807140E80012002AF5D12068143002
:1022E00050E8001F21F0010140E80012002AF5D15A
:1022F0002068143050E8001F21F0400140E800122F
:10230000002AF5D184F84230256320680C3050E86B
:10231000001F21F0100140E80012002AF5D1E06B07
:10232000FEF7FCFA6663A08DE18D401A81B22AE0C7
:10233000A08DE18D401A81B2E08D0028A6D0002941
:10234000A4D022680C3252E8000F20F4907042E8CA
:102350000007002FF5D12068143050E8002F22F03C
:10236000010240E80027002FF5D184F842302563B0
:1023700020680C3050E8002F22F0100240E80023C3
:10238000002BF5D166632046FFF708FFF8BDFFE795
:1023900005062BD5150629D594F841002128F5D13D
:1023A000A068B0F5805F01D12069B0B1206A411CFE
:1023B0002162216800784860E08C401E0004000C17
:1023C000E084E3D12068C16821F08001C160206809
:1023D000C16841F04001C160D8E7206A0088C0F3BD
:1023E00008004860206A801C2062E5E74006CDD5E1
:1023F0005006CBD5CA68204622F04002CA6084F855
:10240000413000F0F2F9C1E7413B000870B504002B
:1024100020D0A06934490028344A354B20681BD0AD
:1024200088420AD0904208D0984206D04FF4B77143
:1024300030A002F021FCA069F8B1A069B0F5807F5E
:102440001BD0B0F5007F18D0B0F5407F15D040F21A
:102450006F110FE0012070BD88420ED090420CD069
:1024600098420AD03249884207D03249884204D083
:1024700040F273111FA002F0FFFBA06838B1B0F565
:10248000805F04D040F275111AA002F0F5FB94F8B9
:102490004100002520B984F84050204600F04CF857
:1024A000242084F841002068C16821F40051C160F3
:1024B000204601F0D5FB2068016921F490410161BB
:1024C0002068416921F02A0141612068C16841F416
:1024D0000051C1606564202084F8410084F8420006
:1024E0006563002070BD00000038014000440040DA
:1024F000004800402E2E2F447269766572732F5368
:10250000544D3332463178785F48414C5F447269AC
:102510007665722F5372632F73746D333266317820
:10252000785F68616C5F756172742E6300000000F3
:10253000004C004000500040F0B585B000240094ED
:1025400001940294039406460368344F02203449F0
:1025500003224502BB4221D18B6943F480438B6146
:102560008B6903F4804304938B6943F004038B610C
:1025700089692C4E01F0040104910102CDE900109B
:10258000039269463046FEF793FCCDE90054694654
:1025900030460294FEF78CFC05B0F0BD224FBB42E2
:1025A000FAD1CB6943F48023CB61CB6903F4802358
:1025B00004938B6943F008038B61896901F008017A
:1025C000CDE90321CDE90050184D69462846FEF7B4
:1025D0006FFCE814CDE90004694628460294FEF732
:1025E00067FC144D1248C5E900048020C5E902408B
:1025F0002C616C61AC612846EC61FEF76FFB08B1A1
:10260000FEF78AF9F5630022012127206E62FEF7AA
:10261000EFFE2720FEF7BAFEBEE7000000380140BB
:10262000001002400008014000480040000C01403A
:10263000300002403C0200202DE9F843044690F8A7
:102640004200994616460D46202802D00220BDE8D9
:10265000F883ADB1A6B100206064222184F8421055
:102660002063FEF731FEA6858046E685A0684FF41C
:102670008057B84201D1206920B12E46002526E0BE
:102680000120E4E7002622E04346002220212046E4
:10269000CDF8009001F0A5FB08B10320D7E726B1E3
:1026A000A068B8421BD038B108E020684068C0F389
:1026B000080025F8020B07E0206980B12068406817
:1026C00000F07F0006F8010BE08D401EE085E08DF4
:1026D0000028D9D1202084F842000020B7E72068E4
:1026E0004068EFE790F84230202B01D0022070477D
:1026F00021B11AB10023036301F058BB01207047D8
:1027000000680F4988421AD10E490F4B08460A7BD0
:10271000C07A0A2A01D0FF2806D350B100221A54E9
:1027200001204873CA7204E00D2A02D01A54401CDA
:10273000C872044901220C310448FFF7D3BF704727
:10274000004800400000002064000020F401002048
:102750002DE9F843044690F841001F4616460D4601
:10276000202802D00220BDE8F8837DB176B1002098
:102770006064212084F84100FEF7A6FDA68480460F
:10278000E684A068B0F5805F02D003E00120EAE7AC
:10279000206910B12E4600250EE000260CE08021B5
:1027A000204601F01EFBA0B9AEB116F8010B21685E
:1027B0004860E08C401EE084E08C43464FF000020D
:1027C00000970028EBD14FF04001204601F009FBB3
:1027D00030B10320C7E735F8020BC0F30800E6E785
:1027E000202084F841000020BDE77047FEE700008C
:1027F0002DE9F047044667480D46844215D06648E7
:10280000844212D0654884420FD0654884420CD07F
:102810006448844209D06448844206D063488442B4
:1028200003D0A22162A002F027FA286830F07B4191
:1028300002D010F07B4F03D0A3215DA002F01CFA60
:102840002868C0F30F2797FAA7F0B0FA80F69AE04D
:102850000120B04038427CD0082E03D240F2011053
:10286000B04006E0A6F108014FF00110884040F0AA
:10287000806081466868082814D1286928B1012839
:1028800003D0BE214AA002F0F7F92969E2684FEAB5
:10289000192090FAA0F0B0FA80F022EA19228140C3
:1028A0000A43E260686858B1042809D0082807D0B4
:1028B000012805D0092803D0C5213DA002F0DCF98C
:1028C000484699FAA9FC04EB1061BCFA8CFC4FEA6B
:1028D0008C084FF00F0C0CFA08FC99FAA9F06A6802
:1028E0000B68B0FA80F0800023EA0C0382401343A7
:1028F0000B6068688A46012801D0092842D1A8687F
:10290000022807D0012805D0032803D0CD2128A014
:1029100002F0B2F9E86828B1042803D0CE2124A03F
:1029200002F0AAF999FAA9FCBCFA8CFC4FEA8C08CF
:102930004FF0030C0CFA08FC99FAA9F2AB68DAF82C
:102940000000B2FA82F2920020EA0C009340184391
:1029500000E017E099FAA9FCBCFA8CFC4FEA8C085D
:102960004FF0040CCAF800000CFA08FC99FAA9F11F
:10297000B1FA81F1EB68890020EA0C008B40184322
:10298000CAF80000761C37FA06F07FF461AFBDE8A4
:10299000F087000000080140000C014000100140D9
:1029A0000014014000180140001C014000200140BB
:1029B0002E2E2F447269766572732F53544D333225
:1029C000463178785F48414C5F4472697665722F72
:1029D0005372632F73746D3332663178785F6C6C29
:1029E0005F6770696F2E630000B5034600F0DCFD81
:1029F000186000F0AFFD586000F0BAFD98605868AC
:102A000000F0C4FDD86000BD2DE9FF5F674F0126CF
:102A1000DFF89C81DFF89C91DFF89CA1DFF89CB186
:102A20000D460446B8420BD0444509D04C4507D06A
:102A3000544505D05C4503D0CD2161A002F01CF9BE
:102A40006E492868884203D9CE215DA002F014F9AE
:102A5000686830B1B0F5805F03D0CF2158A002F094
:102A60000BF9A868B0F5805F0AD048B1B0F5405FB7
:102A700006D0B0F5005F03D0D02151A002F0FCF8E1
:102A8000E86848B1B0F5806F06D0B0F5C06F03D0EC
:102A9000D1214BA002F0F0F8286948B1042807D0F2
:102AA000082805D00C2803D0D22145A002F0E4F874
:102AB000686960B1B0F5807F09D0B0F5007F06D0BD
:102AC000B0F5407F03D0D3213DA002F0D5F8E068F7
:102AD000C0F34030002864D1E9686868E2680843C0
:102AE000296941F20C639A4311430843E060A868E6
:102AF000216921F44051014321616869616921F430
:102B00004071014361616846FFF76EFFBC4201D12D
:102B1000039808E0444505D04C4503D0544501D006
:102B20005C453ED10298E0B32968D1B300EBC00206
:102B300002EB00128800B2FBF0F36421B3FBF1F367
:102B40006FF018077B43B2FBF0F5B2FBF0F705EB33
:102B50008305322303EB0515B5FBF1F5B7FBF1F760
:102B600005F0F00505EB0715B2FBF0F7B2FBF0F04E
:102B7000B0FBF1F000266FF01802504307EB800025
:102B800003EB0010B0FBF1F000F00F00284480B21E
:102B9000A060A068102804D240F2351108A002F00D
:102BA0006BF804B03046BDE8F09F000000380140EB
:102BB0000044004000480040004C004000500040ED
:102BC0002E2E2F447269766572732F53544D333213
:102BD000463178785F48414C5F4472697665722F60
:102BE0005372632F73746D3332663178785F6C6C17
:102BF0005F75736172742E630000000020AA4400A8
:102C0000094808B5416941F001014161406900226C
:102C100000F00100009011460D20FEF7E9FBBDE831
:102C200008400D20FEF7B2BB001002402DE9F04134
:102C300086B000242448009401940294039481698E
:102C400041F010018161816901F0100104918169F5
:102C500041F020018161816901F0200104918169C5
:102C600041F004018161816901F0040104918169ED
:102C700041F0080181618069012200F00800134FD2
:102C80005503049029463846FEF7E8FADFF84080FD
:102C90004FF44076012231464046FEF7DFFA0095B8
:102CA0000125CDE90154694638460395FEF700F940
:102CB0000220CDE90240CDE9006569464046FEF7B5
:102CC000F7F806B0BDE8F0810010024000100140A6
:102CD000000C014010B58AB0002407941C216846FE
:102CE0000894FDF75CFA1748154901604721C0E9CF
:102CF00001144FF4FA71C0E9031480218161FFF7D8
:102D000093F908B1FDF708FE079407A90D48089448
:102D1000FEF7B6FF08B1FDF7FFFD60200090FA2036
:102D2000CDE901040022694606480494FFF76CF8D7
:102D300008B1FDF7F1FD0348FFF740F80AB010BDF8
:102D400000040040640100200C4810B50A490160ED
:102D50004FF4E1314160002181600C22C160C0E983
:102D600004128161C161FFF751FB002803D0BDE867
:102D70001040FDF7D1BD10BD00380140AC0100206E
:102D800030B58DB01C216846FDF709FA142107A85B
:102D9000FDF705FA3148C16941F40031C161C169EB
:102DA00001F400310C91816941F004018161806975
:102DB000002400F004000C9040F204400790092029
:102DC00008900320CDE90904254D07A92846FFF7FF
:102DD0000FFD40F6080007900420089007A9284638
:102DE000FFF706FD1F480068C0F30220C0F107018D
:102DF000042900D90421021D072A01D2002000E085
:102E0000C01E01228A40521E02F0010181400801C9
:102E1000154981F80004144940202239C1F8000105
:102E20004FF46120CDE900040C200294CDE9034069
:102E3000059406940D4C69462046FFF7E5FD206990
:102E400020F490402061606920F02A006061E06811
:102E500040F40050E0600DB030BD000000100240B2
:102E6000000801400CED00E026E000E000440040D6
:102E70000C4810B50A4901604FF4E131416000216E
:102E800081600C22C160C0E904128161C161FFF759
:102E9000BDFA002803D0BDE81040FDF73DBD10BDD0
:102EA00000480040F4010020FEE70000144810B57F
:102EB000816986B041F0040181618069114C00F0A4
:102EC0000400049000200290E02000900120019076
:102ED0000220039069462046FDF7EAFF01222021E7
:102EE0002046FEF7BBF9002240212046FEF7B6F946
:102EF000002280212046FEF7B1F906B010BD000087
:102F0000001002400008014038B50B4C2078012821
:102F100002D0207802280ED1002001E000BF401C22
:102F20000090E18A8842F9DB40210448FEF766F907
:102F3000A069401CA06138BD0000002000080140CD
:102F4000064B012806D0022806D10022802118460F
:102F5000FEF784B90122F9E770470000000801403C
:102F6000FEE7000070B5A4B00546FDF735F964280A
:102F700005D924B075A0BDE8704001F08FBC29468A
:102F800079A001F08BFC7DA12846FDF713F97F4C59
:102F9000A0B105F10D00FDF726F980B2A0F16401A2
:102FA000B1F5617F07D82082218A79A001F076FCF3
:102FB000172181A0B9E0162185A0B6E08AA1284694
:102FC000FDF7F8F888B105F10B00FDF70CF980B2B8
:102FD000A0F5FA71B1F57A7FEDD8E081E18985A09D
:102FE00001F05CFC16218CA09FE090A12846FDF723
:102FF000E1F880B105F10900FDF7F5F880B2A0F124
:103000001401B429D7D86082618A8BA001F046FCF4
:10301000142192A089E096A12846FDF7CBF8010083
:1030200005F10A0006460DD0FDF7DDF880B2411E1D
:103030003129C0D8A082A18A90A001F02FFC1521CF
:1030400098A072E09CA12846FDF7B4F888B13046FC
:10305000FDF7C9F880B2A0F1640141F22432914237
:10306000A9D8E082E18A97A001F018FC15219EA062
:103070005BE0A2A12846FDF79DF8B0B1E28AA18AE3
:10308000608A8DE80700E389228A9FA103A801F0E6
:1030900015FC03A8FDF7A0F881B203A801F056FBC8
:1030A000A8A001F0FBFB24B070BDABA12846FDF742
:1030B00081F8012638B16670A670AAA001F0EEFB77
:1030C0001221AEA031E0B2A12846FDF773F840B15D
:1030D00066700220A070B0A001F0E0FB1021B4A047
:1030E00023E0B7A12846FDF765F840B166700320DC
:1030F000A070B6A001F0D2FB1521B8A015E0BCA1CC
:103100002846FDF757F8A8B100206070A070207025
:10311000E0706071A07102464021B848FEF79EF849
:10312000B7A001F0BBFB1421BCA024B0BDE87040E7
:1031300001F00CBB1421BEA001F008FB24B029460D
:10314000BDE87040BFA001F0A9BB0000E68C87E499
:10315000BBA4E5A4AAE995BFEFBC8CE5BFBDE7958C
:10316000A55C720A00000000E694B6E588B0E68C23
:1031700087E4BBA43A2025730D0A00005345545F31
:10318000494E5F504C4143457C0000000000002048
:10319000E58685E7AEA1E588B0E4BD8DE99888E5D0
:1031A00080BCE5B7B2E4BFAEE694B9E4B8BA3A2061
:1031B00025646D6D0D0A00004F4B7C494E5F504CED
:1031C0004143455F4348414E4745440D0A000000D6
:1031D0004552524F527C494E56414C49445F5641EC
:1031E0004C55450D0A0000005345545F47524F555A
:1031F0004E447C00E59CB0E99DA2E99888E580BC3E
:10320000E5B7B2E4BFAEE694B9E4B8BA3A202564B3
:103210006D6D0D0A000000004F4B7C47524F554E1C
:10322000445F4348414E4745440D0A005345545FAF
:1032300046554C4C7C000000E6BBA1E88AAFE998FB
:1032400088E580BCE5B7B2E4BFAEE694B9E4B8BAAD
:103250003A2025646D6D0D0A000000004F4B7C463E
:10326000554C4C5F4348414E4745440D0A00000011
:103270005345545F535455434B7C0000E58DA1E802
:103280008AAFE5B7AEE580BCE99888E580BCE5B7D4
:10329000B2E4BFAEE694B9E4B8BA3A2025646D6DE5
:1032A0000D0A00004F4B7C535455434B5F4348413C
:1032B0004E4745440D0A00005345545F5350454561
:1032C000447C0000E794B5E69CBAE9809FE5BAA685
:1032D000E5B7B2E4BFAEE694B93A20E5BBB6E697EF
:1032E000B63D25640D0A00004F4B7C5350454544C4
:1032F0005F4348414E4745440D0A00004745545F2F
:10330000504152414D530000504152414D537C4970
:103310004E5F504C4143453D25647C47524F554ECE
:10332000443D25647C46554C4C3D25647C535455A6
:10333000434B3D25647C53504545443D25640D0A6F
:1033400000000000E58F82E695B0E5B7B2E58F9109
:10335000E980815C720A0000434D445F444F574E40
:1033600000000000E6898BE58AA8E4B88BE992BBEF
:10337000E6A8A1E5BC8F0D0A000000004F4B7C4D74
:10338000414E55414C5F444F574E0D0A000000001E
:10339000434D445F55500000E6898BE58AA8E4B8A8
:1033A0008AE68F90E6A8A1E5BC8F0D0A0000000018
:1033B0004F4B7C4D414E55414C5F55500D0A00001E
:1033C000434D445F53544F5000000000E680A5E594
:1033D000819CEFBC815C720A000000004F4B7C4571
:1033E0004D455247454E43595F53544F500D0A00C7
:1033F000434D445F524553455400000000080140CE
:10340000E5A48DE4BD8DE588B0E887AAE58AA8E645
:10341000A8A1E5BC8F5C720A000000004F4B7C52F3
:10342000455345545F544F5F4155544F0D0A0000BA
:103430004552524F527C554E4B4E4F574E5F434D67
:10344000440D0A00E69CAAE79FA5E68C87E4BBA48E
:103450003A2025730D0A0000704700002DE9F04363
:1034600087B08146FDF730FF2E4CA16A401A6428D0
:1034700055D3FDF729FF0026A0622B4A4FF6FF75B2
:103480003146304632F81030B34201D932F810607C
:1034900032F81030AB4201D232F8105032F810300E
:1034A000401C19440A28EDDB207A18B10A20B1FB30
:1034B000F0F080B28046E0781CA730B1012806D039
:1034C000022806D0032807D105E019A704E01AA7AF
:1034D00002E01BA700E01CA7FDF7F6FE4FF47A718F
:1034E000B0FBF1F0B0FBF1F201FB1201E089228A9E
:1034F000751BCDE90420CDE902856279A079CDE97B
:1035000000023B464A46124801F0C8F9A8B2CDE98C
:1035100000806379A279E178484601F027F907B085
:10352000BDE8F083000000205000002000000000F3
:10353000E7A9BAE997B20000E4B88BE992BB0000B2
:10354000E4B88AE68F900000E69A82E5819C00004C
:103550009452000804494968044A01F0F00109093D
:10356000515CC84070470000001002407E510008C6
:1035700004494968044A01F4E06102EB1121097829
:10358000C8407047001002408E5100080449496845
:10359000044A01F4605102EBD1210978C840704718
:1035A000001002408E5100080648406810F00C01DF
:1035B000054805D0042903D0082901D100F006B838
:1035C000704700000010024000127A000B4841686A
:1035D00011F480320A4909D0B2F5803F06D1416822
:1035E000084AC1F34041491CB2FBF1F14068022294
:1035F00000F4701002EB9040484370470010024006
:1036000000093D0000127A002DE9F0412F4C3049AD
:1036100022466378D688002501278A190B2B0BD206
:10362000DFE803F0060C13181D20232C383C3F0064
:103630000870A52800D16770BDE8F08148700328A4
:1036400001D1022028E06570F6E788702028FAD1C1
:10365000032021E0C8700128F5D104201CE0087186
:10366000052019E04871062016E088710720607077
:10367000B1F8050040BA401EE080DDE72289B24281
:1036800004D21144521CC8712281D5E70820607011
:103690002581D1E7107209206070CDE750720A20B1
:1036A00060700B491E2201F11E00FCF75FFD1E2118
:1036B0000748FCF774FD06481E303044008940BAC4
:1036C000A0802581E58065702770B5E74000002067
:1036D0009202002010B5C820FDF7D8FB01F024FDB0
:1036E000C820FDF7D3FBBDE8104001F0FFBC7047D8
:1036F000FDF7F0BD30B58FB028216846FCF74FFDCF
:1037000014210AA8FCF74BFD01210804CDE90010A3
:103710000024029402250491CDE907504FF4E010F3
:1037200009906846FEF750F808B172B6FEE70F2020
:10373000CDE90A054FF48060CDE90C4002210AA8CA
:103740000E94FDF7E5FE002801D072B6FEE70FB03B
:1037500030BD7047F0B502681C4B1D4D1D4E1E4F0D
:103760001E4C4FF0804C984209D0A04207D06045D3
:1037700005D0A84203D0B04201D0B84204D122F013
:10378000700E4A6842EA0E02984209D0A04207D061
:10379000604505D0A84203D0B04201D0B84203D161
:1037A00022F44075CA682A434D6922F080022A43F8
:1037B00002608A68C2620A688262984201D0A042AE
:1037C00001D10969016301214161F0BD002C014073
:1037D0000004004000080040000C0040003401409C
:1037E0002DE9F0470446006A0D46216A21F00101E7
:1037F00021626768A169AE6821F07302296820F030
:103800000200DFF880900643DFF87CA041EA02085E
:103810004C4501D054450ED1E86830B1082804D099
:1038200041F6C42119A001F027FAE86826F0080142
:10383000084320F004064C4501D0544519D1A8692D
:10384000B0F5007F05D020B141F6D1210FA001F0E5
:1038500013FA6869B0F5807F05D020B141F6D22116
:103860000AA001F009FA27F440716869AF690843BA
:1038700007436760C4F81880686860632662BDE823
:10388000F0870000002C0140003401402E2E2F4410
:103890007269766572732F53544D3332463178789E
:1038A0005F48414C5F4472697665722F5372632F93
:1038B00073746D3332663178785F68616C5F7469F8
:1038C0006D2E63002DE9F0470446006A0D46216A1B
:1038D00021F0100121626768A1692A6821F4E6419C
:1038E00041EA0228A968DFF8889020F02000DFF87C
:1038F00084A040EA01164C4501D054450FD1E86838
:1039000030B1082804D041F610311BA001F0B4F901
:10391000E96826F0800040EA011020F040064C459E
:1039200001D054451BD1A869B0F5007F05D020B166
:1039300041F61E3110A001F09FF96869B0F5807F53
:1039400005D020B141F61F310BA001F095F969694E
:1039500027F4406040EA8100A96940EA8107676076
:10396000C4F818806868A0632662BDE8F08700008C
:10397000002C0140003401402E2E2F4472697665E0
:1039800072732F53544D3332463178785F48414C2F
:103990005F4472697665722F5372632F73746D334F
:1039A00032663178785F68616C5F74696D2E630090
:1039B0002DE9F0470446006A0D46216A21F4807122
:1039C00021626768E169DFF8949021F07302296849
:1039D00020F4007041EA0208A968DFF884A040EAF8
:1039E00001264C4501D054450FD1E86830B1082874
:1039F00004D041F65C311BA001F03EF9E96826F4E1
:103A0000006040EA012020F480664C4501D0544516
:103A10001BD1A869B0F5007F05D020B141F669310E
:103A200010A001F029F96869B0F5807F05D020B1B8
:103A300041F66A310BA001F01FF9696927F4405083
:103A400040EA0110A96940EA01176760C4F81C80C8
:103A50006868E0632662BDE8F0870000002C014042
:103A6000003401402E2E2F447269766572732F53F5
:103A7000544D3332463178785F48414C5F44726927
:103A80007665722F5372632F73746D33326631789B
:103A9000785F68616C5F74696D2E63002DE9F04199
:103AA0000446006A0D46216A21F48051216266684D
:103AB000E1692A6821F4E64141EA0228A96820F474
:103AC000005040EA01370E48844202D00D4884423B
:103AD0000ED16869B0F5807F05D020B141F6A931DB
:103AE00009A001F0C9F8696926F4804040EA81160E
:103AF0006660C4F81C80686820642762BDE8F081B5
:103B0000002C0140003401402E2E2F44726976654E
:103B100072732F53544D3332463178785F48414C9D
:103B20005F4472697665722F5372632F73746D33BD
:103B300032663178785F68616C5F74696D2E6300FE
:103B400010B5406A0021C185C184FEF728FB10BD75
:103B500001680C3151E8002F22F4907241E80023F3
:103B6000002BF5D10168143151E8002F22F0010239
:103B700041E80023002BF5D1016B012909D101682F
:103B80000C3151E8002F22F0100241E80023002BF5
:103B9000F5D1202180F8421000210163704708B55B
:103BA00090F84210222901D0022008BD82684FF40B
:103BB00080539A4201D1016921B1816A9A421BD096
:103BC0004AB10AE00268816A5268C2F308020A80B8
:103BD000816A891C08E0026972B10268526802F0C9
:103BE0007F020A70816A491C8162C18D491E0904E5
:103BF000090CC18503D01BE002685268F1E7016837
:103C0000CA6822F02002CA600168CA6822F4807281
:103C1000CA6001684A6922F001024A61202180F8E5
:103C2000421000214163026B012A03D0FEF768FDB8
:103C3000002008BD016301680C3151E8002F22F01B
:103C4000100241E80023002BF5D101680A68D20672
:103C500002D50A6849680091818DFEF79FFAE7E76F
:103C600070B5044640684049884204D940F6666110
:103C70003EA001F001F8E06838B1B0F5005F04D073
:103C800040F6676139A000F0F7FF206950B1B0F548
:103C9000806F07D0B0F5C06F04D040F6686133A0E4
:103CA00000F0EAFF60694FF6F371084200D120B9D5
:103CB00040F669612DA000F0DFFF20680169E2682D
:103CC00021F44051114301612169A06808436169F1
:103CD00008432168CA6841F20C639A430243CA60F0
:103CE00020684169A26921F44071114341612E4964
:103CF0002068884202D1FDF731FD01E0FDF71EFD8D
:103D000000EBC00101EB0012606864218000B2FB8F
:103D1000F0F3B3FBF1F36FF018067343B2FBF0F569
:103D2000B2FBF0F605EB8305322303EB0515B5FB7B
:103D3000F1F5B6FBF1F605F0F00505EB0615B2FB63
:103D4000F0F6B2FBF0F0B0FBF1F06FF01802504368
:103D500006EB800003EB0010B0FBF1F0216800F0EF
:103D60000F002844886070BD20AA44002E2E2F44E6
:103D70007269766572732F53544D333246317878B9
:103D80005F48414C5F4472697665722F5372632FAE
:103D900073746D3332663178785F68616C5F75611A
:103DA00072742E6300000000003801408162828539
:103DB000C28500214164222180F84210016921B1AD
:103DC0000168CA6842F48072CA6001684A6942F0B8
:103DD00001024A610068C16841F02001C160002011
:103DE00070472DE9F041984617460E460446069D59
:103DF00027E0681C25D02DB1FDF766FAA0EB08007E
:103E0000A8421ED920680C3050E8001F21F4D07160
:103E100040E80012002AF5D12068143050E8001F55
:103E200021F0010140E80012002AF5D1202084F899
:103E3000410084F84200002084F840000320BDE8DF
:103E4000F0812068006836EA000004D00020B84203
:103E5000CFD00020F3E70120F9E7000003490A680A
:103E6000C2F3C012002AFAD04860704700440040F4
:103E700030B50C460546002304E0E85CFFF7EEFF92
:103E80005B1CDBB2A342F8D330BD00000548C1681B
:103E9000C1F34011002903D04068C0B2FFF7B4BBA2
:103EA0007047000000440040054800BF50E8001F74
:103EB00041F0200140E80012002AF7D170470000CD
:103EC0000C4400400148FEF76BB90000F4010020EB
:103ED0000849074ACB7922F81300C879401CC871F9
:103EE000C8790A2803D30020C871012008727047DE
:103EF0005000002000000020FEE700002DE9F04700
:103F0000A0B061A000F0CAFC6423032269A16A4842
:103F1000FEF71EFC4FF47A7A5046FCF7B7FF67A015
:103F200000F0BCFC00246A4E27464FF4FA652A468E
:103F300068A169A000F0CCFB28B168A000F0AEFC3D
:103F4000032C0CDA0DE0611C69A000F0A7FC00F066
:103F500097FB2846FCF79AFF641C032CE7DB6DA057
:103F60008EE04FF4967844464046FCF78FFF72A0EF
:103F700000F094FC2A4657A175A000F0A9FB20464A
:103F8000FCF784FF75A177A000F088FC002443F6BD
:103F9000982979A371A27BA1684600F08FFC4A465C
:103FA0004CA1684600F094FB50B17CA000F076FC78
:103FB00040F6B8394846FCF769FF032C0ADA0BE0F3
:103FC000611C82A000F06AFC2846FCF75FFF641CBD
:103FD000032CDEDB87A053E090A000F05FFC50468E
:103FE000FCF754FF93A295A198A000F057FC002481
:103FF0004FF4FA5A8FA391A29CA1684600F05EFC90
:104000005246A1A1684600F063FB28B1A0A000F0D1
:1040100045FC022C0ADA0BE0611CA2A000F03EFC79
:104020002846FCF733FF641C022CE3DBA7A027E043
:104030004FF4FA742046FCF729FFA9A000F02EFCEB
:104040002A4624A1ACA000F043FB4046FCF71EFF2B
:10405000ADA000F023FC4A46B0A1B1A000F038FBAF
:1040600068B12046FCF712FFB0A000F017FCB5A025
:1040700000F014FC0120707220B0BDE8F087BCA0F5
:1040800000F00CFC7772F7E70D0A3D3D3D3D3D3DEC
:104090003D3D3D3D2057694669E9858DE7BDAEE56B
:1040A000BC80E5A78B203D3D3D3D3D3D3D3D3D3D3B
:1040B0000D0A00002B2B2B00F4010020E6B58BE845
:1040C000AF954154E68C87E4BBA42E2E2E0D0A003A
:1040D000000000204F4B00004154000020204154BC
:1040E000E5938DE5BA94E6ADA3E5B8B80D0A0000F6
:1040F00020204154E697A0E5938DE5BA94EFBC8C5F
:10410000E9878DE8AF952025642F332E2E2E0D0ADA
:1041100000000000202057694669E6A8A1E59D97A8
:10412000E697A0E5938DE5BA94EFBC8CE694BEE5E6
:10413000BC830D0A00000000E8AEBEE7BDAE5354DC
:1041400041E6A8A1E5BC8F2E2E2E0D0A000000002E
:1041500041542B43574D4F44453D310077616E67C5
:1041600038000000E8BF9EE68EA5576946693A20F0
:1041700025732E2E2E0D0A0077616E677A696661AF
:104180006E2E000041542B43574A41505F43555215
:104190003D222573222C22257322000020205769FE
:1041A0004669E8BF9EE68EA5E5938DE5BA94E6885C
:1041B00090E58A9FEFBC8CE7AD89E5BE85E88EB7B8
:1041C000E58F9649502E2E2E0D0A000020205769AB
:1041D0004669E8BF9EE68EA5E5A4B1E8B4A5EFBCAC
:1041E0008CE9878DE8AF952025642F332E2E2E0D78
:1041F0000A000000202057694669E8BF9EE68EA5A8
:10420000E5A4B1E8B4A5EFBC88E5B7B2E9878DE8CD
:10421000AF9533E6ACA1EFBC890D0A0020205769A9
:104220004669E8BF9EE68EA5E68890E58A9F0D0A5E
:1042300000000000383038300000000031302E38E7
:10424000302E3132372E313337000000E8BF9EE682
:104250008EA5544350E69C8DE58AA1E599A82025BA
:10426000733A25732E2E2E0D0A00000041542B4365
:10427000495053544152543D22544350222C22253C
:1042800073222C2573000000434F4E4E45435400CB
:104290002020544350E8BF9EE68EA5E68890E58A2C
:1042A0009F0D0A002020544350E8BF9EE68EA5E5EE
:1042B000A4B1E8B4A5EFBC8CE9878DE8AF952025C3
:1042C000642F322E2E2E0D0A0000000020205443B1
:1042D00050E8BF9EE68EA5E5A4B1E8B4A50D0A009E
:1042E000E5BC80E590AFE9808FE4BCA0E6A8A1E53D
:1042F000BC8F2E2E2E0D0A0041542B4349504D4F9A
:1043000044453D3100000000E8BF9BE585A5E980FC
:104310008FE4BCA02E2E2E0D0A0000003E000000EF
:1043200041542B43495053454E44000020205769C7
:104330004669E9808FE4BCA0E5B0B1E7BBAA0D0AED
:10434000000000003D3D3D3D3D3D3D3D3D3D3D3D91
:104350003D3D3D3D3D3D3D3D3D3D3D3D3D3D3D3D8D
:104360003D3D3D3D3D3D3D3D0D0A0D0A0000000037
:104370002020E8BF9BE585A5E9808FE4BCA0E5A4EB
:10438000B1E8B4A50D0A000030B585B0114800248D
:104390000294816941F00801816180690E4D00F04D
:1043A000080004904FF4007000900120019002205A
:1043B000039069462846FCF77BFDA815CDE900046B
:1043C000694628460294FCF773FD04A000F066FAE3
:1043D00005B030BD00100240000C0140576946692D
:1043E000E5BC95E8849AE5889DE5A78BE58C96E584
:1043F000AE8CE688905C720A000000002DE9F04166
:10440000A0B03AA000F04AFA642303223EA13F483C
:10441000FEF79EF94FF47A70FCF738FD4FF4FA6618
:1044200032463BA13BA000F053F950B140F6B838FA
:10443000424637A138A000F04BF93A4C002568B14C
:104440001DE039A000F02AFA00F01AF93046FCF716
:104450001DFDFFF753FD20B0BDE8F0813DA000F049
:104460001DFA44A346A248A1684600F027FA43F685
:10447000982227A1684600F02BF900282CD048A0EC
:1044800000F00CFA4CA34EA251A1684600F016FAB7
:104490004FF4FA5255A1684600F01AF900281DD0D1
:1044A0004FF496773846FCF7F1FC324618A151A03C
:1044B00000F00EF9C820FCF7E9FC424651A152A0D9
:1044C00000F006F960B13846FCF7E0FC01206072AC
:1044D00050A000F0E3F9BEE754A002E05AA000E0CB
:1044E00060A000F0DBF96572B5E700005B57694634
:1044F000695D20E98080E587BAE9808FE4BCA02E61
:104500002E2E0D0A000000002B2B2B00F4010020A2
:104510004F4B00004154000041542B43574A415037
:104520003F000000000000205B576946695D20E6FF
:10453000A8A1E59D97E697A0E5938DE5BA94EFBC19
:104540008CE5A48DE4BD8DE9878DE8AF952E2E2EE8
:104550000D0A00005B576946695D2057694669E5A9
:10456000B7B2E696ADEFBC8CE9878DE8BF9E2E2EE4
:104570002E0D0A0077616E677A6966616E2E000003
:1045800077616E673800000041542B43574A415011
:104590005F4355523D222573222C222573220000B1
:1045A0005B576946695D20E9878DE8BF9E5443509B
:1045B0002E2E2E0D0A00000038303830000000008A
:1045C00031302E38302E3132372E31333700000063
:1045D00041542B43495053544152543D225443506B
:1045E000222C222573222C2573000000434F4E4EAF
:1045F0004543540041542B4349504D4F44453D31B0
:10460000000000003E00000041542B434950534538
:104610004E4400005B576946695D20E9878DE8BF1D
:104620009EE5AE8CE688900D0A0000005B57694657
:10463000695D2057694669E9878DE8BF9EE5A4B1A9
:10464000E8B4A50D0A0000005B576946695D205477
:104650004350E9878DE8BF9EE5A4B1E8B4A50D0AF3
:10466000000000005B576946695D20E8BF9BE58557
:10467000A5E9808FE4BCA0E5A4B1E8B4A50D0A00CB
:1046800070B50C4D4FF40074002221462846FCF70B
:10469000E5FD6420FCF7FAFB012221462846FCF7E1
:1046A000DDFD4FF4FA60FCF7F1FBBDE8704002A0BD
:1046B00000F0F4B8000C014057694669E6A8A1E58E
:1046C0009D97E5B7B2E5A48DE4BD8D5C720A00004C
:1046D0002DE9F043A1B0174689460646FCF7F4FDE4
:1046E000054600243046FBF777FD82B2642331464D
:1046F0001448FEF72DF86423022213A11148FEF797
:1047000027F8A0466E4615E03119322301220D48E4
:10471000FDF792FF70B97F2C0CD2641CA4B24946FD
:1047200006F804806846FBF745FD18B1012021B06A
:10473000BDE8F083FCF7C8FD401BB842E4D300207D
:10474000F5E70000F40100200D0A0000054A527A46
:10475000002A05D00A46014664230348FDF7F8BF46
:104760007047000000000020F40100202DE9F04710
:10477000CAB01E46DDE952A917468046002935D049
:10478000012935D0022935D0032935D020A5012FA4
:1047900034D0012E34D0012934D0002934D003295B
:1047A00034D01DA4FCF790FD4FF47A71B0FBF1F208
:1047B0001B48C18AC389B0F810C0CDF810A0CDE95C
:1047C0000731CDE9059CCDE90054CDE90276434699
:1047D00014A109A800F072F809A8FBF7FDFC81B24A
:1047E00009A8FFF7B3FF4AB0BDE8F08717A5CEE7E9
:1047F00018A5CCE719A5CAE719A5C8E71AA4D1E7F7
:104800001CA4CFE71EA4CDE720A4CBE721A4C9E7D1
:10481000554E4B4E4F574E004E4F524D414C00009F
:1048200000000020444154417C25647C25647C25A3
:10483000737C25737C25647C25647C25647C2564DD
:104840007C25647C25647C25640D0A0049444C4524
:1048500000000000444F574E00000000555000007B
:104860005041555345000000494E5F504C4143456F
:1048700000000000524556455253494E4700000083
:104880004452494C4C494E4700000000574149549E
:10489000494E470050415553494E47000FB4054B10
:1048A00010B503A9044A029800F040F810BC5DF866
:1048B00014FB0000054D00082C0000200FB4084B2D
:1048C00010B504A902AA039800F030F8044602A922
:1048D000002000F0CCF9204610BC5DF814FB00006D
:1048E0006F4C00080907090E002804DB00F1E020E6
:1048F00080F80014704700F00F0000F1E02080F80D
:10490000141D7047004870474C00002002E008C8A2
:10491000121F08C1002AFAD170477047002001E039
:1049200001C1121F002AFBD1704700002DE9FF4F83
:104930008BB088460546002606E025280BD0DDE929
:104940000D1290476D1C761C28780028F5D10FB009
:104950003046BDE8F08F0024A146A2460122AE49B0
:1049600000E0044315F8013F203B02FA03F008423F
:10497000F7D128782A2810D06FF02F022878A0F1DC
:104980003001092915D809EB890102EB410144F0F6
:10499000020400EB01096D1CF0E758F8041B5FEA04
:1049A000010903D544F40054C9F1000944F002049C
:1049B0006D1C28782E2817D115F8010F44F0040437
:1049C0002A280ED06FF02F022878A0F13001092993
:1049D0000AD80AEB8A0102EB410100EB010A6D1CC7
:1049E000F2E758F804AB6D1C28786C280FD006DC71
:1049F0004C2817D068280DD06A2814D104E07428F8
:104A000010D07A280FD10DE044F400140AE044F4E9
:104A1000801401E044F440146978814202D104F525
:104A200080146D1C6D1C2878692865D006DC002870
:104A30008DD0632827D0642806D15DE06E2808D089
:104A400073282AD0752877D0DDE90D129047761C9F
:104A5000E0E0C4F30250022809D003280DD0D8F8B2
:104A6000001004280DD00E6008F10408D2E0D8F838
:104A70000010F217C1E90062F6E7D8F800100E80C6
:104A8000F2E70E70F0E718F8041B8DF80010002014
:104A90008DF80100EB46012003E058F804BB4FF00D
:104AA000FF3061074FF0000701D40AE07F1C574533
:104AB0000DDA8742FADB1BF807100029F6D106E071
:104AC0007F1C8742FCDB1BF807100029F8D1DDE9C9
:104AD0000D23A9EB07008146214600F0B1F83044D0
:104AE000C61904E0DDE90D121BF8010B90477F1E8B
:104AF000F8D22146484688E058F8040BC4F3025126
:104B00004FF00A0B032900D100B2042900D140B2B2
:104B1000002802DA40422D2102E0210505D52B2193
:104B20008DF82410012104E006E0E10710D02021D7
:104B3000F6E708AF089113E058F8040BC4F30251EC
:104B40004FF00A0B032900D180B2042900D1C0B272
:104B50000021EEE75946FBF753FB303107F8011D02
:104B60000028F7D1ADEB070000F1200B600702D55C
:104B700024F4803401E04FF0010ADA4502DDAAEBAB
:104B80000B0000E00020824600EB0B010898014476
:104B9000A9EB01000A90E00306D4DDE90D232146CC
:104BA0000A9800F04DF806444FF0000908E009A902
:104BB00011F80900DDE90D12904709F10109761C91
:104BC00008998945F3DBE0030CD5DDE90D23214687
:104BD0000A9800F035F8064404E0DDE90D123020B3
:104BE0009047761CBAF10001AAF1010AF5DC05E054
:104BF000DDE90D1217F8010B9047761CBBF100019F
:104C0000ABF1010BF4DC0A982146DDE90D2300F03D
:104C100005F806446D1C97E6092801002DE9F041CE
:104C2000044600251E461746880404D405E039468C
:104C30002020B0476D1C641EF9D52846BDE8F081E0
:104C40002DE9F041044600251E469046C80301D5D3
:104C5000302700E02027880404D505E04146384687
:104C6000B0476D1C641EF9D52846BDE8F0810A687E
:104C7000531C0B601070704770472DE9F04F4FF6D2
:104C8000FF7A0127524648F205064FF00009BB465D
:104C900023E010F8013B8FB11D4600231C465FEA5C
:104CA000C57C07D0C4F107080BFA08FC4CEA030CDA
:104CB0000CF0FF036D08641C082CF0DB82EA032271
:104CC00000235446150403D586EA420292B201E05D
:104CD00004EA42025B1C082BF4DB491ED9D20020F7
:104CE00001465B46D40705D0C1F10F0403FA04F472
:104CF0000443A0B25208491C1029F3DB80EA0900E2
:104D0000BDE8F08F04490A685206FCD5024AC1B2D8
:104D1000121D1160704700000038014008B5FCF713
:104D2000E1FAFEF7E7FCFDF781FFFDF769FFFEF70B
:104D30000BF8FEF725F8FDF7CDFFFEF799F8FBF726
:104D400035FBFEF7B3F8FFF71FFBFFF799FC4FF4B5
:104D50007A70FCF79BF845A0FFF7A0FDFFF7CEF8AF
:104D6000484C0120A072607A60B147A0FFF796FD21
:104D70005048FFF793FD012204F10C014E48FDF766
:104D8000B1FC05E04DA0FFF789FDFCF79DFA20621C
:104D900014215748FBF703FA56A0FFF77FFD60A0E8
:104DA000FFF77CFD607A28B167A269A16CA0FFF7CC
:104DB00075FD02E072A0FFF771FDA08A0090638A82
:104DC000E289218A7948FFF769FDE18A78A0FFF737
:104DD00065FD82A0FFF762FD40F6B83241F28831EE
:104DE00084A0FFF75BFD91A0FFF758FDFBF7CAFA1F
:104DF000FEF78AF8607B28B1002060733C481430CD
:104E0000FEF7B0F8FCF760FA616A401A6428EDD347
:104E1000FCF75AFA6062607AE0B9A07AD0B1FCF788
:104E200053FA216A401A42F21071884212D3FCF7F9
:104E30004BFA206288A0FFF731FDFFF7DFFA607AB6
:104E400040B18DA0FFF72AFD0E4901220C311A480E
:104E5000FDF748FC8E4805882846FFF739F82846B4
:104E6000FBF708FB2846FEF7F9FABFE70D0AE5B0A5
:104E70009DE8AF95E8BF9EE68EA5576946692E2E40
:104E80002E0D0A000000002057694669E8BF9EE623
:104E90008EA5E68890E58A9FEFBC8CE695B0E68DFE
:104EA000AEE5B086E697A0E7BABFE4BCA0E8BE9343
:104EB0000D0A00001C520008F401002057694669E1
:104EC000E8BF9EE68EA5E5A4B1E8B4A5EFBC8CE5ED
:104ED000B086E59CA8E8BF90E8A18CE4B8ADE8876F
:104EE000AAE58AA8E9878DE8AF952E2E2E0D0A0037
:104EF000500000200D0A3D3D3D3D3D3D3D3D3D3DC9
:104F00003D3D3D3D3D3D3D3D3D3D3D3D3D3D3D3DD1
:104F10003D3D3D3D3D3D3D3D3D3D0D0A0000000018
:104F2000E696B0E59E8BE992BBE585B7E69CBAE6CE
:104F30009E84E68EA7E588B6E7B3BBE7BB9FE59006
:104F4000AFE58AA80D0A00003830383000000000B4
:104F500031302E38302E3132372E313337000000C9
:104F600057694669E6A8A1E5BC8FEFBC9AE5B7B2E0
:104F7000E8BF9EE68EA52025733A25730D0A000032
:104F800057694669E6A8A1E5BC8FEFBC9AE69CAAE2
:104F9000E8BF9EE68EA5EFBC88E78BACE7AB8BE85D
:104FA000BF90E8A18CEFBC890D0A0000F452000804
:104FB000E794B5E69CBAE9809FE5BAA6EFBC9AE50E
:104FC000BBB6E697B63D25642028E8B68AE5B08FE3
:104FD000E8B68AE5BFAB290D0A000000E6B58BE80C
:104FE000B79DE997B4E99A94EFBC9A3130306D736C
:104FF0000D0A0000E69A82E5819CE697B6E997B42F
:10500000EFBC9AE58685E7AEA1E588B0E4BD8D3DAD
:1050100025646D7320E58DA1E88AAF2FE6BBA1E87A
:105020008AAF3D25646D730D0A0000003D3D3D3D96
:105030003D3D3D3D3D3D3D3D3D3D3D3D3D3D3D3DA0
:105040003D3D3D3D3D3D3D3D3D3D3D3D3D3D3D3D90
:105050000D0A0D0A000000005B576946695D20E5F6
:10506000B09DE8AF95E9878DE696B0E8BF9EE68EE5
:10507000A52E2E2E0D0A00005B576946695D20E9BA
:10508000878DE8BF9EE68890E58A9F210D0A000083
:105090004200002010B50B4CB4F8050041BA204680
:1050A000C91DFFF7EAFD084B9988884208D134F8FA
:1050B0000D1F06A0A2885980BDE81040FFF7EEBB87
:1050C00010BD0000B0020020400000206469732081
:1050D0003D2025646D6D09202C20737472656E6708
:1050E0007468203D2025640D0A0000000D4810B5AD
:1050F000A521017003214170202181700121C1701F
:1051000000210171417181710221C1716E21017211
:105110000921FEF7ADFEBDE8104012210148FBF762
:105120003EB800008002002010B50F4CA5200721DA
:105130002070032060702020A0700220E07000200A
:1051400020716071A0712046FFF797FD010AE1719F
:10515000207209212046FEF78BFE2046BDE8104054
:105160001221FBF71CB8000080020020010202039C
:105170000405060708090A0B0C0D0E0F101000009D
:1051800000000000000001020304060708090000F7
:1051900000000102030400404040404040404040C5
:1051A00041414141414040404040404040404040FA
:1051B000404040404040400502020202020202021A
:1051C00002020202020202202020202020202020B1
:1051D0002002020202020202909090909090101021
:1051E00010101010101010101010101010101010BF
:1051F0001010020202020202888888888888080843
:10520000080808080808080808080808080808081E
:10521000080802020202400097510008E58FAFE53E
:105220008F91E98081E68C87E4BBA43A20534554F2
:105230005F494E5F504C4143457C7878782C205331
:1052400045545F47524F554E447C7878782C205314
:1052500045545F53504545447C7878782C20474529
:10526000545F504152414D532C20434D445F444FB5
:10527000574E2C20434D445F55502C20434D445FE6
:1052800053544F502C20434D445F52455345540DC9
:105290000A0000005B253033645D20646973743D4F
:1052A0002534646D6D207C202573207CE588B0E476
:1052B000BD8D3D25647C7265763D25647C206176DC
:1052C000673D2533646D6D7C20646966663D2532DB
:1052D000646D6D207C20E58F82E695B03AE588B05C
:1052E000E4BD8D3D256420E59CB0E99DA23D25648B
:1052F0000D0A0000E5BD93E5898DE58F82E695B046
:10530000EFBC9AE588B0E4BD8D3D25646D6D20E568
:105310009CB0E99DA23D25646D6D20E6BBA1E88AA5
:10532000AF3D3C25646D6D20E58DA1E88AAFE5B702
:10533000AEE580BC3C25646D6D0D0A005C53000831
:1053400000000020500000000C490008AC53000889
:1053500050000020800600001C49000800000000EA
:1053600000000000000000000000BC0268014600D0
:1053700002006400000000000000000000000000C7
:10538000000000000000000000000000010000001C
:1053900010000000000000000024F40000000000E5
:0C53A00000000000000000000000000001
:0400000508000131BD
:00000001FF
